{
    "contractName": "CRC1155NatureAutoId",
    "abi": [
        {
            "inputs": [
                {
                    "internalType": "string",
                    "name": "name_",
                    "type": "string"
                },
                {
                    "internalType": "string",
                    "name": "symbol_",
                    "type": "string"
                },
                {
                    "internalType": "string",
                    "name": "uri_",
                    "type": "string"
                }
            ],
            "stateMutability": "nonpayable",
            "type": "constructor"
        },
        {
            "anonymous": false,
            "inputs": [
                {
                    "indexed": true,
                    "internalType": "address",
                    "name": "account",
                    "type": "address"
                },
                {
                    "indexed": true,
                    "internalType": "address",
                    "name": "operator",
                    "type": "address"
                },
                {
                    "indexed": false,
                    "internalType": "bool",
                    "name": "approved",
                    "type": "bool"
                }
            ],
            "name": "ApprovalForAll",
            "type": "event"
        },
        {
            "anonymous": false,
            "inputs": [
                {
                    "indexed": true,
                    "internalType": "bytes32",
                    "name": "role",
                    "type": "bytes32"
                },
                {
                    "indexed": true,
                    "internalType": "bytes32",
                    "name": "previousAdminRole",
                    "type": "bytes32"
                },
                {
                    "indexed": true,
                    "internalType": "bytes32",
                    "name": "newAdminRole",
                    "type": "bytes32"
                }
            ],
            "name": "RoleAdminChanged",
            "type": "event"
        },
        {
            "anonymous": false,
            "inputs": [
                {
                    "indexed": true,
                    "internalType": "bytes32",
                    "name": "role",
                    "type": "bytes32"
                },
                {
                    "indexed": true,
                    "internalType": "address",
                    "name": "account",
                    "type": "address"
                },
                {
                    "indexed": true,
                    "internalType": "address",
                    "name": "sender",
                    "type": "address"
                }
            ],
            "name": "RoleGranted",
            "type": "event"
        },
        {
            "anonymous": false,
            "inputs": [
                {
                    "indexed": true,
                    "internalType": "bytes32",
                    "name": "role",
                    "type": "bytes32"
                },
                {
                    "indexed": true,
                    "internalType": "address",
                    "name": "account",
                    "type": "address"
                },
                {
                    "indexed": true,
                    "internalType": "address",
                    "name": "sender",
                    "type": "address"
                }
            ],
            "name": "RoleRevoked",
            "type": "event"
        },
        {
            "anonymous": false,
            "inputs": [
                {
                    "indexed": true,
                    "internalType": "address",
                    "name": "operator",
                    "type": "address"
                },
                {
                    "indexed": true,
                    "internalType": "address",
                    "name": "from",
                    "type": "address"
                },
                {
                    "indexed": true,
                    "internalType": "address",
                    "name": "to",
                    "type": "address"
                },
                {
                    "indexed": false,
                    "internalType": "uint256[]",
                    "name": "ids",
                    "type": "uint256[]"
                },
                {
                    "indexed": false,
                    "internalType": "uint256[]",
                    "name": "values",
                    "type": "uint256[]"
                }
            ],
            "name": "TransferBatch",
            "type": "event"
        },
        {
            "anonymous": false,
            "inputs": [
                {
                    "indexed": true,
                    "internalType": "address",
                    "name": "operator",
                    "type": "address"
                },
                {
                    "indexed": true,
                    "internalType": "address",
                    "name": "from",
                    "type": "address"
                },
                {
                    "indexed": true,
                    "internalType": "address",
                    "name": "to",
                    "type": "address"
                },
                {
                    "indexed": false,
                    "internalType": "uint256",
                    "name": "id",
                    "type": "uint256"
                },
                {
                    "indexed": false,
                    "internalType": "uint256",
                    "name": "value",
                    "type": "uint256"
                }
            ],
            "name": "TransferSingle",
            "type": "event"
        },
        {
            "anonymous": false,
            "inputs": [
                {
                    "indexed": false,
                    "internalType": "string",
                    "name": "value",
                    "type": "string"
                },
                {
                    "indexed": true,
                    "internalType": "uint256",
                    "name": "id",
                    "type": "uint256"
                }
            ],
            "name": "URI",
            "type": "event"
        },
        {
            "inputs": [],
            "name": "DEFAULT_ADMIN_ROLE",
            "outputs": [
                {
                    "internalType": "bytes32",
                    "name": "",
                    "type": "bytes32"
                }
            ],
            "stateMutability": "view",
            "type": "function"
        },
        {
            "inputs": [],
            "name": "MINTER_ROLE",
            "outputs": [
                {
                    "internalType": "bytes32",
                    "name": "",
                    "type": "bytes32"
                }
            ],
            "stateMutability": "view",
            "type": "function"
        },
        {
            "inputs": [],
            "name": "PAUSER_ROLE",
            "outputs": [
                {
                    "internalType": "bytes32",
                    "name": "",
                    "type": "bytes32"
                }
            ],
            "stateMutability": "view",
            "type": "function"
        },
        {
            "inputs": [
                {
                    "internalType": "address",
                    "name": "minter_",
                    "type": "address"
                }
            ],
            "name": "addMinter",
            "outputs": [],
            "stateMutability": "nonpayable",
            "type": "function"
        },
        {
            "inputs": [
                {
                    "internalType": "address",
                    "name": "account",
                    "type": "address"
                },
                {
                    "internalType": "uint256",
                    "name": "id",
                    "type": "uint256"
                }
            ],
            "name": "balanceOf",
            "outputs": [
                {
                    "internalType": "uint256",
                    "name": "",
                    "type": "uint256"
                }
            ],
            "stateMutability": "view",
            "type": "function"
        },
        {
            "inputs": [
                {
                    "internalType": "address[]",
                    "name": "accounts",
                    "type": "address[]"
                },
                {
                    "internalType": "uint256[]",
                    "name": "ids",
                    "type": "uint256[]"
                }
            ],
            "name": "balanceOfBatch",
            "outputs": [
                {
                    "internalType": "uint256[]",
                    "name": "",
                    "type": "uint256[]"
                }
            ],
            "stateMutability": "view",
            "type": "function"
        },
        {
            "inputs": [
                {
                    "internalType": "address[]",
                    "name": "_initialOwners",
                    "type": "address[]"
                }
            ],
            "name": "batchAddItemByAddress",
            "outputs": [],
            "stateMutability": "nonpayable",
            "type": "function"
        },
        {
            "inputs": [
                {
                    "internalType": "address",
                    "name": "_to",
                    "type": "address"
                },
                {
                    "internalType": "uint256",
                    "name": "_amount",
                    "type": "uint256"
                }
            ],
            "name": "batchAddItemByNumber",
            "outputs": [],
            "stateMutability": "nonpayable",
            "type": "function"
        },
        {
            "inputs": [
                {
                    "internalType": "uint256",
                    "name": "tokenId",
                    "type": "uint256"
                }
            ],
            "name": "exists",
            "outputs": [
                {
                    "internalType": "bool",
                    "name": "",
                    "type": "bool"
                }
            ],
            "stateMutability": "view",
            "type": "function"
        },
        {
            "inputs": [
                {
                    "internalType": "bytes32",
                    "name": "role",
                    "type": "bytes32"
                }
            ],
            "name": "getRoleAdmin",
            "outputs": [
                {
                    "internalType": "bytes32",
                    "name": "",
                    "type": "bytes32"
                }
            ],
            "stateMutability": "view",
            "type": "function"
        },
        {
            "inputs": [
                {
                    "internalType": "bytes32",
                    "name": "role",
                    "type": "bytes32"
                },
                {
                    "internalType": "uint256",
                    "name": "index",
                    "type": "uint256"
                }
            ],
            "name": "getRoleMember",
            "outputs": [
                {
                    "internalType": "address",
                    "name": "",
                    "type": "address"
                }
            ],
            "stateMutability": "view",
            "type": "function"
        },
        {
            "inputs": [
                {
                    "internalType": "bytes32",
                    "name": "role",
                    "type": "bytes32"
                }
            ],
            "name": "getRoleMemberCount",
            "outputs": [
                {
                    "internalType": "uint256",
                    "name": "",
                    "type": "uint256"
                }
            ],
            "stateMutability": "view",
            "type": "function"
        },
        {
            "inputs": [
                {
                    "internalType": "bytes32",
                    "name": "role",
                    "type": "bytes32"
                },
                {
                    "internalType": "address",
                    "name": "account",
                    "type": "address"
                }
            ],
            "name": "grantRole",
            "outputs": [],
            "stateMutability": "nonpayable",
            "type": "function"
        },
        {
            "inputs": [
                {
                    "internalType": "bytes32",
                    "name": "role",
                    "type": "bytes32"
                },
                {
                    "internalType": "address",
                    "name": "account",
                    "type": "address"
                }
            ],
            "name": "hasRole",
            "outputs": [
                {
                    "internalType": "bool",
                    "name": "",
                    "type": "bool"
                }
            ],
            "stateMutability": "view",
            "type": "function"
        },
        {
            "inputs": [
                {
                    "internalType": "address",
                    "name": "account",
                    "type": "address"
                },
                {
                    "internalType": "address",
                    "name": "operator",
                    "type": "address"
                }
            ],
            "name": "isApprovedForAll",
            "outputs": [
                {
                    "internalType": "bool",
                    "name": "",
                    "type": "bool"
                }
            ],
            "stateMutability": "view",
            "type": "function"
        },
        {
            "inputs": [
                {
                    "internalType": "address",
                    "name": "to",
                    "type": "address"
                },
                {
                    "internalType": "bytes",
                    "name": "data",
                    "type": "bytes"
                }
            ],
            "name": "mint",
            "outputs": [],
            "stateMutability": "nonpayable",
            "type": "function"
        },
        {
            "inputs": [
                {
                    "internalType": "address",
                    "name": "to",
                    "type": "address"
                },
                {
                    "internalType": "uint256",
                    "name": "amount",
                    "type": "uint256"
                },
                {
                    "internalType": "bytes",
                    "name": "data",
                    "type": "bytes"
                }
            ],
            "name": "mintBatch",
            "outputs": [],
            "stateMutability": "nonpayable",
            "type": "function"
        },
        {
            "inputs": [],
            "name": "name",
            "outputs": [
                {
                    "internalType": "string",
                    "name": "",
                    "type": "string"
                }
            ],
            "stateMutability": "view",
            "type": "function"
        },
        {
            "inputs": [
                {
                    "internalType": "address",
                    "name": "minter_",
                    "type": "address"
                }
            ],
            "name": "removeMinter",
            "outputs": [],
            "stateMutability": "nonpayable",
            "type": "function"
        },
        {
            "inputs": [
                {
                    "internalType": "bytes32",
                    "name": "role",
                    "type": "bytes32"
                },
                {
                    "internalType": "address",
                    "name": "account",
                    "type": "address"
                }
            ],
            "name": "renounceRole",
            "outputs": [],
            "stateMutability": "nonpayable",
            "type": "function"
        },
        {
            "inputs": [
                {
                    "internalType": "bytes32",
                    "name": "role",
                    "type": "bytes32"
                },
                {
                    "internalType": "address",
                    "name": "account",
                    "type": "address"
                }
            ],
            "name": "revokeRole",
            "outputs": [],
            "stateMutability": "nonpayable",
            "type": "function"
        },
        {
            "inputs": [
                {
                    "internalType": "address",
                    "name": "from",
                    "type": "address"
                },
                {
                    "internalType": "address",
                    "name": "to",
                    "type": "address"
                },
                {
                    "internalType": "uint256[]",
                    "name": "ids",
                    "type": "uint256[]"
                },
                {
                    "internalType": "uint256[]",
                    "name": "amounts",
                    "type": "uint256[]"
                },
                {
                    "internalType": "bytes",
                    "name": "data",
                    "type": "bytes"
                }
            ],
            "name": "safeBatchTransferFrom",
            "outputs": [],
            "stateMutability": "nonpayable",
            "type": "function"
        },
        {
            "inputs": [
                {
                    "internalType": "address",
                    "name": "from",
                    "type": "address"
                },
                {
                    "internalType": "address",
                    "name": "to",
                    "type": "address"
                },
                {
                    "internalType": "uint256",
                    "name": "id",
                    "type": "uint256"
                },
                {
                    "internalType": "uint256",
                    "name": "amount",
                    "type": "uint256"
                },
                {
                    "internalType": "bytes",
                    "name": "data",
                    "type": "bytes"
                }
            ],
            "name": "safeTransferFrom",
            "outputs": [],
            "stateMutability": "nonpayable",
            "type": "function"
        },
        {
            "inputs": [
                {
                    "internalType": "address",
                    "name": "operator",
                    "type": "address"
                },
                {
                    "internalType": "bool",
                    "name": "approved",
                    "type": "bool"
                }
            ],
            "name": "setApprovalForAll",
            "outputs": [],
            "stateMutability": "nonpayable",
            "type": "function"
        },
        {
            "inputs": [
                {
                    "internalType": "string",
                    "name": "newuri",
                    "type": "string"
                }
            ],
            "name": "setURI",
            "outputs": [],
            "stateMutability": "nonpayable",
            "type": "function"
        },
        {
            "inputs": [
                {
                    "internalType": "bytes4",
                    "name": "interfaceId",
                    "type": "bytes4"
                }
            ],
            "name": "supportsInterface",
            "outputs": [
                {
                    "internalType": "bool",
                    "name": "",
                    "type": "bool"
                }
            ],
            "stateMutability": "view",
            "type": "function"
        },
        {
            "inputs": [],
            "name": "symbol",
            "outputs": [
                {
                    "internalType": "string",
                    "name": "",
                    "type": "string"
                }
            ],
            "stateMutability": "view",
            "type": "function"
        },
        {
            "inputs": [
                {
                    "internalType": "uint256",
                    "name": "index",
                    "type": "uint256"
                }
            ],
            "name": "tokenByIndex",
            "outputs": [
                {
                    "internalType": "uint256",
                    "name": "",
                    "type": "uint256"
                }
            ],
            "stateMutability": "view",
            "type": "function"
        },
        {
            "inputs": [
                {
                    "internalType": "address",
                    "name": "owner",
                    "type": "address"
                }
            ],
            "name": "tokenCountOf",
            "outputs": [
                {
                    "internalType": "uint256",
                    "name": "",
                    "type": "uint256"
                }
            ],
            "stateMutability": "view",
            "type": "function"
        },
        {
            "inputs": [
                {
                    "internalType": "address",
                    "name": "owner",
                    "type": "address"
                },
                {
                    "internalType": "uint256",
                    "name": "index",
                    "type": "uint256"
                }
            ],
            "name": "tokenOfOwnerByIndex",
            "outputs": [
                {
                    "internalType": "uint256",
                    "name": "",
                    "type": "uint256"
                }
            ],
            "stateMutability": "view",
            "type": "function"
        },
        {
            "inputs": [
                {
                    "internalType": "uint256",
                    "name": "offset",
                    "type": "uint256"
                },
                {
                    "internalType": "uint256",
                    "name": "limit",
                    "type": "uint256"
                }
            ],
            "name": "tokens",
            "outputs": [
                {
                    "internalType": "uint256",
                    "name": "total",
                    "type": "uint256"
                },
                {
                    "internalType": "uint256[]",
                    "name": "tokenIds",
                    "type": "uint256[]"
                }
            ],
            "stateMutability": "view",
            "type": "function"
        },
        {
            "inputs": [
                {
                    "internalType": "address",
                    "name": "owner",
                    "type": "address"
                },
                {
                    "internalType": "uint256",
                    "name": "offset",
                    "type": "uint256"
                },
                {
                    "internalType": "uint256",
                    "name": "limit",
                    "type": "uint256"
                }
            ],
            "name": "tokensOf",
            "outputs": [
                {
                    "internalType": "uint256",
                    "name": "total",
                    "type": "uint256"
                },
                {
                    "internalType": "uint256[]",
                    "name": "tokenIds",
                    "type": "uint256[]"
                }
            ],
            "stateMutability": "view",
            "type": "function"
        },
        {
            "inputs": [],
            "name": "totalSupply",
            "outputs": [
                {
                    "internalType": "uint256",
                    "name": "",
                    "type": "uint256"
                }
            ],
            "stateMutability": "view",
            "type": "function"
        },
        {
            "inputs": [
                {
                    "internalType": "uint256",
                    "name": "tokenId",
                    "type": "uint256"
                }
            ],
            "name": "totalSupply",
            "outputs": [
                {
                    "internalType": "uint256",
                    "name": "",
                    "type": "uint256"
                }
            ],
            "stateMutability": "view",
            "type": "function"
        },
        {
            "inputs": [
                {
                    "internalType": "uint256",
                    "name": "tokenId",
                    "type": "uint256"
                }
            ],
            "name": "uri",
            "outputs": [
                {
                    "internalType": "string",
                    "name": "",
                    "type": "string"
                }
            ],
            "stateMutability": "view",
            "type": "function"
        }
    ],
    "bytecode": "0x60806040523480156200001157600080fd5b50604051620035e2380380620035e2833981016040819052620000349162000602565b8282826200004281620002d4565b508151620000589060099060208501906200048f565b5080516200006e90600a9060208401906200048f565b506200007c915050620002ed565b15620002665760408051600180825281830190925260009160208083019080368337019050509050600081600081518110620000bc57620000bc62000693565b6001600160a01b0390921660209283029190910190910152604051630809469f60e11b8152730888000000000000000000000000000000000001906310128d3e906200010d908490600401620006a9565b600060405180830381600087803b1580156200012857600080fd5b505af11580156200013d573d6000803e3d6000fd5b505060405163c55b6bb760e01b81523060048201526000602482015261011160931b925063c55b6bb79150604401600060405180830381600087803b1580156200018657600080fd5b505af11580156200019b573d6000803e3d6000fd5b50506040516364efb22b60e01b81523060048201526000925061011160931b91506364efb22b90602401602060405180830381865afa158015620001e3573d6000803e3d6000fd5b505050506040513d601f19601f82011682018060405250810190620002099190620006f8565b6001600160a01b031614620002645760405162461bcd60e51b815260206004820152601560248201527f726571756972652061646d696e203d3d206e756c6c0000000000000000000000604482015260640160405180910390fd5b505b6200027360003362000328565b6200029f7f9f2df0fed2c77648de5860a4cc508cd0818c85b8b8a1ab4ceeef8d981c8956a63362000328565b620002cb7f65d7a28e3265b37a6474929f336521b332c1681b933f6cb9f3376673440d862a3362000328565b50505062000766565b8051620002e99060049060208401906200048f565b5050565b600062000322731820a4b7618bde71dce8cdc73aab6c95905fad246001600160a01b03166200033460201b620010161760201c565b15905090565b620002e982826200033a565b3b151590565b6200035182826200037d60201b6200101c1760201c565b600082815260016020908152604090912062000378918390620010a06200041d821b17901c565b505050565b6000828152602081815260408083206001600160a01b038516845290915290205460ff16620002e9576000828152602081815260408083206001600160a01b03851684529091529020805460ff19166001179055620003d93390565b6001600160a01b0316816001600160a01b0316837f2f8788117e7eff1d82e926ec794901d17c78024a50270940304540a733656f0d60405160405180910390a45050565b600062000434836001600160a01b0384166200043d565b90505b92915050565b6000818152600183016020526040812054620004865750815460018181018455600084815260208082209093018490558454848252828601909352604090209190915562000437565b50600062000437565b8280546200049d906200072a565b90600052602060002090601f016020900481019282620004c157600085556200050c565b82601f10620004dc57805160ff19168380011785556200050c565b828001600101855582156200050c579182015b828111156200050c578251825591602001919060010190620004ef565b506200051a9291506200051e565b5090565b5b808211156200051a57600081556001016200051f565b634e487b7160e01b600052604160045260246000fd5b600082601f8301126200055d57600080fd5b81516001600160401b03808211156200057a576200057a62000535565b604051601f8301601f19908116603f01168101908282118183101715620005a557620005a562000535565b81604052838152602092508683858801011115620005c257600080fd5b600091505b83821015620005e65785820183015181830184015290820190620005c7565b83821115620005f85760008385830101525b9695505050505050565b6000806000606084860312156200061857600080fd5b83516001600160401b03808211156200063057600080fd5b6200063e878388016200054b565b945060208601519150808211156200065557600080fd5b62000663878388016200054b565b935060408601519150808211156200067a57600080fd5b5062000689868287016200054b565b9150509250925092565b634e487b7160e01b600052603260045260246000fd5b6020808252825182820181905260009190848201906040850190845b81811015620006ec5783516001600160a01b031683529284019291840191600101620006c5565b50909695505050505050565b6000602082840312156200070b57600080fd5b81516001600160a01b03811681146200072357600080fd5b9392505050565b600181811c908216806200073f57607f821691505b6020821081036200076057634e487b7160e01b600052602260045260246000fd5b50919050565b612e6c80620007766000396000f3fe608060405234801561001057600080fd5b50600436106102105760003560e01c806354777f4111610125578063b722938a116100ad578063d53913931161007c578063d5391393146104b4578063d547741f146104c9578063e63ab1e9146104dc578063e985e9c514610503578063f242432a1461053f57600080fd5b8063b722938a1461045b578063bd85b0391461046e578063ca15c8731461048e578063cdf3d474146104a157600080fd5b806395d89b41116100f457806395d89b4114610412578063983b2d561461041a578063a217fddf1461042d578063a22cb46514610435578063b510391f1461044857600080fd5b806354777f41146103ae5780638b4864d6146103c15780639010d07c146103d457806391d14854146103ff57600080fd5b80632eb2c2d6116101a857806331f0e6c81161017757806331f0e6c81461033357806336568abe146103465780634e1273f4146103595780634f558e79146103795780634f6ccce71461039b57600080fd5b80632eb2c2d6146102e75780632f2ff15d146102fa5780632f745c591461030d5780633092afd51461032057600080fd5b80630e89341c116101e45780630e89341c1461028857806318160ddd1461029b57806323185dc9146102a3578063248a9ca3146102c457600080fd5b8062fdd58e1461021557806301ffc9a71461023b57806302fe53051461025e57806306fdde0314610273575b600080fd5b61022861022336600461221c565b610552565b6040519081526020015b60405180910390f35b61024e61024936600461225c565b6105ee565b6040519015158152602001610232565b61027161026c366004612318565b610608565b005b61027b610688565b60405161023291906123b8565b61027b6102963660046123cb565b61071a565b610228610755565b6102b66102b13660046123e4565b610766565b604051610232929190612452565b6102286102d23660046123cb565b60009081526020819052604090206001015490565b6102716102f536600461251f565b610858565b6102716103083660046125c8565b6108ef565b61022861031b36600461221c565b61091a565b61027161032e3660046125f4565b610943565b61027161034136600461260f565b61095b565b6102716103543660046125c8565b610a9e565b61036c610367366004612665565b610b1c565b604051610232919061272f565b61024e6103873660046123cb565b600090815260076020526040902054151590565b6102286103a93660046123cb565b610c45565b6102716103bc366004612742565b610c52565b6102b66103cf3660046127b6565b610d08565b6103e76103e23660046127b6565b610df0565b6040516001600160a01b039091168152602001610232565b61024e61040d3660046125c8565b610e08565b61027b610e31565b6102716104283660046125f4565b610e40565b610228600081565b6102716104433660046127d8565b610e58565b610271610456366004612814565b610e63565b6102286104693660046125f4565b610ec5565b61022861047c3660046123cb565b60009081526007602052604090205490565b61022861049c3660046123cb565b610ee6565b6102716104af36600461221c565b610efd565b610228600080516020612e1783398151915281565b6102716104d73660046125c8565b610f69565b6102287f65d7a28e3265b37a6474929f336521b332c1681b933f6cb9f3376673440d862a81565b61024e610511366004612857565b6001600160a01b03918216600090815260036020908152604080832093909416825291909152205460ff1690565b61027161054d366004612881565b610f8f565b60006001600160a01b0383166105c35760405162461bcd60e51b815260206004820152602b60248201527f455243313135353a2062616c616e636520717565727920666f7220746865207a60448201526a65726f206164647265737360a81b60648201526084015b60405180910390fd5b5060008181526002602090815260408083206001600160a01b03861684529091529020545b92915050565b60006105f9826110b5565b806105e857506105e8826110da565b610613600033610e08565b61067c5760405162461bcd60e51b815260206004820152603460248201527f435243313135354e61747572654175746f49643a206d75737420686176652061604482015273646d696e20726f6c6520746f207365742055524960601b60648201526084016105ba565b610685816110ff565b50565b606060098054610697906128e5565b80601f01602080910402602001604051908101604052809291908181526020018280546106c3906128e5565b80156107105780601f106106e557610100808354040283529160200191610710565b820191906000526020600020905b8154815290600101906020018083116106f357829003601f168201915b5050505050905090565b606061072582611112565b61072e836111a6565b60405160200161073f92919061291f565b6040516020818303038152906040529050919050565b600061076160056112ae565b905090565b6000606061077385610ec5565b91508115806107825750818410155b1561079c5750604080516000815260208101909152610850565b60006107b26107ab8587612974565b84906112b8565b90506107be858261298c565b6001600160401b038111156107d5576107d5612279565b6040519080825280602002602001820160405280156107fe578160200160208202803683370190505b509150845b8181101561084d57610815878261091a565b83610820888461298c565b81518110610830576108306129a3565b602090810291909101015280610845816129b9565b915050610803565b50505b935093915050565b6001600160a01b03851633148061087457506108748533610511565b6108db5760405162461bcd60e51b815260206004820152603260248201527f455243313135353a207472616e736665722063616c6c6572206973206e6f74206044820152711bdddb995c881b9bdc88185c1c1c9bdd995960721b60648201526084016105ba565b6108e885858585856112ce565b5050505050565b60008281526020819052604090206001015461090b813361147b565b61091583836114df565b505050565b6001600160a01b038216600090815260086020526040812061093c9083611501565b9392505050565b610685600080516020612e1783398151915282610f69565b610973600080516020612e1783398151915233610e08565b61098f5760405162461bcd60e51b81526004016105ba906129d2565b6000826001600160401b038111156109a9576109a9612279565b6040519080825280602002602001820160405280156109d2578160200160208202803683370190505b5090506000836001600160401b038111156109ef576109ef612279565b604051908082528060200260200182016040528015610a18578160200160208202803683370190505b50905060005b84811015610a9157600b54610a34906001612974565b838281518110610a4657610a466129a3565b602002602001018181525050610a60600b80546001019055565b6001828281518110610a7457610a746129a3565b602090810291909101015280610a89816129b9565b915050610a1e565b506108e88583838661150d565b6001600160a01b0381163314610b0e5760405162461bcd60e51b815260206004820152602f60248201527f416363657373436f6e74726f6c3a2063616e206f6e6c792072656e6f756e636560448201526e103937b632b9903337b91039b2b63360891b60648201526084016105ba565b610b188282611668565b5050565b60608151835114610b815760405162461bcd60e51b815260206004820152602960248201527f455243313135353a206163636f756e747320616e6420696473206c656e677468604482015268040dad2e6dac2e8c6d60bb1b60648201526084016105ba565b600083516001600160401b03811115610b9c57610b9c612279565b604051908082528060200260200182016040528015610bc5578160200160208202803683370190505b50905060005b8451811015610c3d57610c10858281518110610be957610be96129a3565b6020026020010151858381518110610c0357610c036129a3565b6020026020010151610552565b828281518110610c2257610c226129a3565b6020908102919091010152610c36816129b9565b9050610bcb565b509392505050565b60006105e8600583611501565b610c6a600080516020612e1783398151915233610e08565b610c865760405162461bcd60e51b81526004016105ba906129d2565b8060005b81811015610d0257610ce2848483818110610ca757610ca76129a3565b9050602002016020810190610cbc91906125f4565b600b545b610ccb906001612974565b60016040518060200160405280600081525061168a565b610cf0600b80546001019055565b80610cfa816129b9565b915050610c8a565b50505050565b60006060610d14610755565b9150811580610d235750818410155b15610d3d5750604080516000815260208101909152610de9565b6000610d4c6107ab8587612974565b9050610d58858261298c565b6001600160401b03811115610d6f57610d6f612279565b604051908082528060200260200182016040528015610d98578160200160208202803683370190505b509150845b81811015610de657610dae81610c45565b83610db9888461298c565b81518110610dc957610dc96129a3565b602090810291909101015280610dde816129b9565b915050610d9d565b50505b9250929050565b600082815260016020526040812061093c9083611501565b6000918252602082815260408084206001600160a01b0393909316845291905290205460ff1690565b6060600a8054610697906128e5565b610685600080516020612e17833981519152826108ef565b610b18338383611762565b610e7b600080516020612e1783398151915233610e08565b610e975760405162461bcd60e51b81526004016105ba906129d2565b610eb782610ea4600b5490565b610eaf906001612974565b60018461168a565b610b18600b80546001019055565b6001600160a01b03811660009081526008602052604081206105e8906112ae565b60008181526001602052604081206105e8906112ae565b610f15600080516020612e1783398151915233610e08565b610f315760405162461bcd60e51b81526004016105ba906129d2565b60005b8181101561091557610f4983610cc0600b5490565b610f57600b80546001019055565b80610f61816129b9565b915050610f34565b600082815260208190526040902060010154610f85813361147b565b6109158383611668565b6001600160a01b038516331480610fab5750610fab8533610511565b6110095760405162461bcd60e51b815260206004820152602960248201527f455243313135353a2063616c6c6572206973206e6f74206f776e6572206e6f7260448201526808185c1c1c9bdd995960ba1b60648201526084016105ba565b6108e88585858585611842565b3b151590565b6110268282610e08565b610b18576000828152602081815260408083206001600160a01b03851684529091529020805460ff1916600117905561105c3390565b6001600160a01b0316816001600160a01b0316837f2f8788117e7eff1d82e926ec794901d17c78024a50270940304540a733656f0d60405160405180910390a45050565b600061093c836001600160a01b038416611963565b60006001600160e01b03198216635a05180f60e01b14806105e857506105e8826119b2565b60006001600160e01b03198216633dfc30a960e01b14806105e857506105e8826119e7565b8051610b18906004906020840190612167565b606060048054611121906128e5565b80601f016020809104026020016040519081016040528092919081815260200182805461114d906128e5565b801561119a5780601f1061116f5761010080835404028352916020019161119a565b820191906000526020600020905b81548152906001019060200180831161117d57829003601f168201915b50505050509050919050565b6060816000036111cd5750506040805180820190915260018152600360fc1b602082015290565b8160005b81156111f757806111e1816129b9565b91506111f09050600a83612a3a565b91506111d1565b6000816001600160401b0381111561121157611211612279565b6040519080825280601f01601f19166020018201604052801561123b576020820181803683370190505b5090505b84156112a65761125060018361298c565b915061125d600a86612a4e565b611268906030612974565b60f81b81838151811061127d5761127d6129a3565b60200101906001600160f81b031916908160001a90535061129f600a86612a3a565b945061123f565b949350505050565b60006105e8825490565b60008183106112c7578161093c565b5090919050565b81518351146112ef5760405162461bcd60e51b81526004016105ba90612a62565b6001600160a01b0384166113155760405162461bcd60e51b81526004016105ba90612aaa565b33611324818787878787611a27565b60005b845181101561140d576000858281518110611344576113446129a3565b602002602001015190506000858381518110611362576113626129a3565b60209081029190910181015160008481526002835260408082206001600160a01b038e1683529093529190912054909150818110156113b35760405162461bcd60e51b81526004016105ba90612aef565b60008381526002602090815260408083206001600160a01b038e8116855292528083208585039055908b168252812080548492906113f2908490612974565b9250508190555050505080611406906129b9565b9050611327565b50846001600160a01b0316866001600160a01b0316826001600160a01b03167f4a39dc06d4c0dbc64b70af90fd698a233a518aa5d07e595d983b8c0526c8f7fb878760405161145d929190612b39565b60405180910390a4611473818787878787611bc0565b505050505050565b6114858282610e08565b610b185761149d816001600160a01b03166014611d1b565b6114a8836020611d1b565b6040516020016114b9929190612b67565b60408051601f198184030181529082905262461bcd60e51b82526105ba916004016123b8565b6114e9828261101c565b600082815260016020526040902061091590826110a0565b600061093c8383611eb6565b6001600160a01b0384166115335760405162461bcd60e51b81526004016105ba90612bdc565b81518351146115545760405162461bcd60e51b81526004016105ba90612a62565b3361156481600087878787611a27565b60005b845181101561160057838181518110611582576115826129a3565b6020026020010151600260008784815181106115a0576115a06129a3565b602002602001015181526020019081526020016000206000886001600160a01b03166001600160a01b0316815260200190815260200160002060008282546115e89190612974565b909155508190506115f8816129b9565b915050611567565b50846001600160a01b031660006001600160a01b0316826001600160a01b03167f4a39dc06d4c0dbc64b70af90fd698a233a518aa5d07e595d983b8c0526c8f7fb8787604051611651929190612b39565b60405180910390a46108e881600087878787611bc0565b6116728282611ee0565b60008281526001602052604090206109159082611f45565b6001600160a01b0384166116b05760405162461bcd60e51b81526004016105ba90612bdc565b336116d0816000876116c188611f5a565b6116ca88611f5a565b87611a27565b60008481526002602090815260408083206001600160a01b038916845290915281208054859290611702908490612974565b909155505060408051858152602081018590526001600160a01b0380881692600092918516917fc3d58168c5ae7397731d063d5bbf3d657854427343f4c083240f7aacaa2d0f62910160405180910390a46108e881600087878787611fa5565b816001600160a01b0316836001600160a01b0316036117d55760405162461bcd60e51b815260206004820152602960248201527f455243313135353a2073657474696e6720617070726f76616c20737461747573604482015268103337b91039b2b63360b91b60648201526084016105ba565b6001600160a01b03838116600081815260036020908152604080832094871680845294825291829020805460ff191686151590811790915591519182527f17307eab39ab6107e8899845ad3d59bd9653f200f220920489ca2b5937696c31910160405180910390a3505050565b6001600160a01b0384166118685760405162461bcd60e51b81526004016105ba90612aaa565b336118788187876116c188611f5a565b60008481526002602090815260408083206001600160a01b038a168452909152902054838110156118bb5760405162461bcd60e51b81526004016105ba90612aef565b60008581526002602090815260408083206001600160a01b038b81168552925280832087850390559088168252812080548692906118fa908490612974565b909155505060408051868152602081018690526001600160a01b03808916928a821692918616917fc3d58168c5ae7397731d063d5bbf3d657854427343f4c083240f7aacaa2d0f62910160405180910390a461195a828888888888611fa5565b50505050505050565b60008181526001830160205260408120546119aa575081546001818101845560008481526020808220909301849055845484825282860190935260409020919091556105e8565b5060006105e8565b60006001600160e01b03198216637965db0b60e01b14806105e857506301ffc9a760e01b6001600160e01b03198316146105e8565b60006001600160e01b03198216636cdb3d1360e11b1480611a1857506001600160e01b031982166303a24d0760e21b145b806105e857506105e8826110b5565b60005b835181101561195a576000848281518110611a4757611a476129a3565b602002602001015190506000848381518110611a6557611a656129a3565b602002602001015190508060001480611a8f5750866001600160a01b0316886001600160a01b0316145b15611a9b575050611bb0565b6001600160a01b038816611aec5760008281526007602052604081205490819003611acd57611acb600584612060565b505b611ad78282612974565b60008481526007602052604090205550611b20565b80611af78984610552565b03611b20576001600160a01b0388166000908152600860205260409020611b1e908361206c565b505b6001600160a01b038716611b785760008281526007602052604081208054839290611b4c90849061298c565b90915550506000828152600760205260408120549003611b7357611b7160058361206c565b505b611bad565b611b828783610552565b600003611bad576001600160a01b0387166000908152600860205260409020611bab9083612060565b505b50505b611bb9816129b9565b9050611a2a565b6001600160a01b0384163b156114735760405163bc197c8160e01b81526001600160a01b0385169063bc197c8190611c049089908990889088908890600401612c1d565b6020604051808303816000875af1925050508015611c3f575060408051601f3d908101601f19168201909252611c3c91810190612c7b565b60015b611ceb57611c4b612c98565b806308c379a003611c845750611c5f612cb4565b80611c6a5750611c86565b8060405162461bcd60e51b81526004016105ba91906123b8565b505b60405162461bcd60e51b815260206004820152603460248201527f455243313135353a207472616e7366657220746f206e6f6e20455243313135356044820152732932b1b2b4bb32b91034b6b83632b6b2b73a32b960611b60648201526084016105ba565b6001600160e01b0319811663bc197c8160e01b1461195a5760405162461bcd60e51b81526004016105ba90612d3d565b60606000611d2a836002612d85565b611d35906002612974565b6001600160401b03811115611d4c57611d4c612279565b6040519080825280601f01601f191660200182016040528015611d76576020820181803683370190505b509050600360fc1b81600081518110611d9157611d916129a3565b60200101906001600160f81b031916908160001a905350600f60fb1b81600181518110611dc057611dc06129a3565b60200101906001600160f81b031916908160001a9053506000611de4846002612d85565b611def906001612974565b90505b6001811115611e67576f181899199a1a9b1b9c1cb0b131b232b360811b85600f1660108110611e2357611e236129a3565b1a60f81b828281518110611e3957611e396129a3565b60200101906001600160f81b031916908160001a90535060049490941c93611e6081612da4565b9050611df2565b50831561093c5760405162461bcd60e51b815260206004820181905260248201527f537472696e67733a20686578206c656e67746820696e73756666696369656e7460448201526064016105ba565b6000826000018281548110611ecd57611ecd6129a3565b9060005260206000200154905092915050565b611eea8282610e08565b15610b18576000828152602081815260408083206001600160a01b0385168085529252808320805460ff1916905551339285917ff6391f5c32d9c69d2a47ea670b442974b53935d1edc7fd64eb21e047a839171b9190a45050565b600061093c836001600160a01b038416612074565b60408051600180825281830190925260609160009190602080830190803683370190505090508281600081518110611f9457611f946129a3565b602090810291909101015292915050565b6001600160a01b0384163b156114735760405163f23a6e6160e01b81526001600160a01b0385169063f23a6e6190611fe99089908990889088908890600401612dbb565b6020604051808303816000875af1925050508015612024575060408051601f3d908101601f1916820190925261202191810190612c7b565b60015b61203057611c4b612c98565b6001600160e01b0319811663f23a6e6160e01b1461195a5760405162461bcd60e51b81526004016105ba90612d3d565b600061093c8383611963565b600061093c83835b6000818152600183016020526040812054801561215d57600061209860018361298c565b85549091506000906120ac9060019061298c565b90508181146121115760008660000182815481106120cc576120cc6129a3565b90600052602060002001549050808760000184815481106120ef576120ef6129a3565b6000918252602080832090910192909255918252600188019052604090208390555b855486908061212257612122612e00565b6001900381819060005260206000200160009055905585600101600086815260200190815260200160002060009055600193505050506105e8565b60009150506105e8565b828054612173906128e5565b90600052602060002090601f01602090048101928261219557600085556121db565b82601f106121ae57805160ff19168380011785556121db565b828001600101855582156121db579182015b828111156121db5782518255916020019190600101906121c0565b506121e79291506121eb565b5090565b5b808211156121e757600081556001016121ec565b80356001600160a01b038116811461221757600080fd5b919050565b6000806040838503121561222f57600080fd5b61223883612200565b946020939093013593505050565b6001600160e01b03198116811461068557600080fd5b60006020828403121561226e57600080fd5b813561093c81612246565b634e487b7160e01b600052604160045260246000fd5b601f8201601f191681016001600160401b03811182821017156122b4576122b4612279565b6040525050565b60006001600160401b038311156122d4576122d4612279565b6040516122eb601f8501601f19166020018261228f565b80915083815284848401111561230057600080fd5b83836020830137600060208583010152509392505050565b60006020828403121561232a57600080fd5b81356001600160401b0381111561234057600080fd5b8201601f8101841361235157600080fd5b6112a6848235602084016122bb565b60005b8381101561237b578181015183820152602001612363565b83811115610d025750506000910152565b600081518084526123a4816020860160208601612360565b601f01601f19169290920160200192915050565b60208152600061093c602083018461238c565b6000602082840312156123dd57600080fd5b5035919050565b6000806000606084860312156123f957600080fd5b61240284612200565b95602085013595506040909401359392505050565b600081518084526020808501945080840160005b838110156124475781518752958201959082019060010161242b565b509495945050505050565b8281526040602082015260006112a66040830184612417565b60006001600160401b0382111561248457612484612279565b5060051b60200190565b600082601f83011261249f57600080fd5b813560206124ac8261246b565b6040516124b9828261228f565b83815260059390931b85018201928281019150868411156124d957600080fd5b8286015b848110156124f457803583529183019183016124dd565b509695505050505050565b600082601f83011261251057600080fd5b61093c838335602085016122bb565b600080600080600060a0868803121561253757600080fd5b61254086612200565b945061254e60208701612200565b935060408601356001600160401b038082111561256a57600080fd5b61257689838a0161248e565b9450606088013591508082111561258c57600080fd5b61259889838a0161248e565b935060808801359150808211156125ae57600080fd5b506125bb888289016124ff565b9150509295509295909350565b600080604083850312156125db57600080fd5b823591506125eb60208401612200565b90509250929050565b60006020828403121561260657600080fd5b61093c82612200565b60008060006060848603121561262457600080fd5b61262d84612200565b92506020840135915060408401356001600160401b0381111561264f57600080fd5b61265b868287016124ff565b9150509250925092565b6000806040838503121561267857600080fd5b82356001600160401b038082111561268f57600080fd5b818501915085601f8301126126a357600080fd5b813560206126b08261246b565b6040516126bd828261228f565b83815260059390931b85018201928281019150898411156126dd57600080fd5b948201945b83861015612702576126f386612200565b825294820194908201906126e2565b9650508601359250508082111561271857600080fd5b506127258582860161248e565b9150509250929050565b60208152600061093c6020830184612417565b6000806020838503121561275557600080fd5b82356001600160401b038082111561276c57600080fd5b818501915085601f83011261278057600080fd5b81358181111561278f57600080fd5b8660208260051b85010111156127a457600080fd5b60209290920196919550909350505050565b600080604083850312156127c957600080fd5b50508035926020909101359150565b600080604083850312156127eb57600080fd5b6127f483612200565b91506020830135801515811461280957600080fd5b809150509250929050565b6000806040838503121561282757600080fd5b61283083612200565b915060208301356001600160401b0381111561284b57600080fd5b612725858286016124ff565b6000806040838503121561286a57600080fd5b61287383612200565b91506125eb60208401612200565b600080600080600060a0868803121561289957600080fd5b6128a286612200565b94506128b060208701612200565b9350604086013592506060860135915060808601356001600160401b038111156128d957600080fd5b6125bb888289016124ff565b600181811c908216806128f957607f821691505b60208210810361291957634e487b7160e01b600052602260045260246000fd5b50919050565b60008351612931818460208801612360565b835190830190612945818360208801612360565b64173539b7b760d91b9101908152600501949350505050565b634e487b7160e01b600052601160045260246000fd5b600082198211156129875761298761295e565b500190565b60008282101561299e5761299e61295e565b500390565b634e487b7160e01b600052603260045260246000fd5b6000600182016129cb576129cb61295e565b5060010190565b60208082526032908201527f435243313135354e61747572654175746f49643a206d7573742068617665206d6040820152711a5b9d195c881c9bdb19481d1bc81b5a5b9d60721b606082015260800190565b634e487b7160e01b600052601260045260246000fd5b600082612a4957612a49612a24565b500490565b600082612a5d57612a5d612a24565b500690565b60208082526028908201527f455243313135353a2069647320616e6420616d6f756e7473206c656e677468206040820152670dad2e6dac2e8c6d60c31b606082015260800190565b60208082526025908201527f455243313135353a207472616e7366657220746f20746865207a65726f206164604082015264647265737360d81b606082015260800190565b6020808252602a908201527f455243313135353a20696e73756666696369656e742062616c616e636520666f60408201526939103a3930b739b332b960b11b606082015260800190565b604081526000612b4c6040830185612417565b8281036020840152612b5e8185612417565b95945050505050565b7f416363657373436f6e74726f6c3a206163636f756e7420000000000000000000815260008351612b9f816017850160208801612360565b7001034b99036b4b9b9b4b733903937b6329607d1b6017918401918201528351612bd0816028840160208801612360565b01602801949350505050565b60208082526021908201527f455243313135353a206d696e7420746f20746865207a65726f206164647265736040820152607360f81b606082015260800190565b6001600160a01b0386811682528516602082015260a060408201819052600090612c4990830186612417565b8281036060840152612c5b8186612417565b90508281036080840152612c6f818561238c565b98975050505050505050565b600060208284031215612c8d57600080fd5b815161093c81612246565b600060033d1115612cb15760046000803e5060005160e01c5b90565b600060443d1015612cc25790565b6040516003193d81016004833e81513d6001600160401b038160248401118184111715612cf157505050505090565b8285019150815181811115612d095750505050505090565b843d8701016020828501011115612d235750505050505090565b612d326020828601018761228f565b509095945050505050565b60208082526028908201527f455243313135353a204552433131353552656365697665722072656a656374656040820152676420746f6b656e7360c01b606082015260800190565b6000816000190483118215151615612d9f57612d9f61295e565b500290565b600081612db357612db361295e565b506000190190565b6001600160a01b03868116825285166020820152604081018490526060810183905260a060808201819052600090612df59083018461238c565b979650505050505050565b634e487b7160e01b600052603160045260246000fdfe9f2df0fed2c77648de5860a4cc508cd0818c85b8b8a1ab4ceeef8d981c8956a6a26469706673582212201012c6956f0e860dded90b085ef3462d20ab88e7558271317f21ee00ffafdbf364736f6c634300080e0033",
    "sourcePath": "d:/sol/NFT2.0/contracts/CRC1155NatureAutoId.sol",
    "compiler": {
        "name": "solc",
        "version": "0.8.14+commit.80d49f37"
    },
    "functionHashes": {
        "DEFAULT_ADMIN_ROLE()": "a217fddf",
        "MINTER_ROLE()": "d5391393",
        "PAUSER_ROLE()": "e63ab1e9",
        "addMinter(address)": "983b2d56",
        "balanceOf(address,uint256)": "00fdd58e",
        "balanceOfBatch(address[],uint256[])": "4e1273f4",
        "batchAddItemByAddress(address[])": "54777f41",
        "batchAddItemByNumber(address,uint256)": "cdf3d474",
        "exists(uint256)": "4f558e79",
        "getRoleAdmin(bytes32)": "248a9ca3",
        "getRoleMember(bytes32,uint256)": "9010d07c",
        "getRoleMemberCount(bytes32)": "ca15c873",
        "grantRole(bytes32,address)": "2f2ff15d",
        "hasRole(bytes32,address)": "91d14854",
        "isApprovedForAll(address,address)": "e985e9c5",
        "mint(address,bytes)": "b510391f",
        "mintBatch(address,uint256,bytes)": "31f0e6c8",
        "name()": "06fdde03",
        "removeMinter(address)": "3092afd5",
        "renounceRole(bytes32,address)": "36568abe",
        "revokeRole(bytes32,address)": "d547741f",
        "safeBatchTransferFrom(address,address,uint256[],uint256[],bytes)": "2eb2c2d6",
        "safeTransferFrom(address,address,uint256,uint256,bytes)": "f242432a",
        "setApprovalForAll(address,bool)": "a22cb465",
        "setURI(string)": "02fe5305",
        "supportsInterface(bytes4)": "01ffc9a7",
        "symbol()": "95d89b41",
        "tokenByIndex(uint256)": "4f6ccce7",
        "tokenCountOf(address)": "b722938a",
        "tokenOfOwnerByIndex(address,uint256)": "2f745c59",
        "tokens(uint256,uint256)": "8b4864d6",
        "tokensOf(address,uint256,uint256)": "23185dc9",
        "totalSupply()": "18160ddd",
        "totalSupply(uint256)": "bd85b039",
        "uri(uint256)": "0e89341c"
    },
    "gasEstimates": {
        "creation": {
            "codeDepositCost": "2376800",
            "executionCost": "infinite",
            "totalCost": "infinite"
        },
        "external": {
            "DEFAULT_ADMIN_ROLE()": "273",
            "MINTER_ROLE()": "infinite",
            "PAUSER_ROLE()": "272",
            "addMinter(address)": "infinite",
            "balanceOf(address,uint256)": "2726",
            "balanceOfBatch(address[],uint256[])": "infinite",
            "batchAddItemByAddress(address[])": "infinite",
            "batchAddItemByNumber(address,uint256)": "infinite",
            "exists(uint256)": "2561",
            "getRoleAdmin(bytes32)": "2548",
            "getRoleMember(bytes32,uint256)": "infinite",
            "getRoleMemberCount(bytes32)": "infinite",
            "grantRole(bytes32,address)": "infinite",
            "hasRole(bytes32,address)": "2774",
            "isApprovedForAll(address,address)": "infinite",
            "mint(address,bytes)": "infinite",
            "mintBatch(address,uint256,bytes)": "infinite",
            "name()": "infinite",
            "removeMinter(address)": "infinite",
            "renounceRole(bytes32,address)": "infinite",
            "revokeRole(bytes32,address)": "infinite",
            "safeBatchTransferFrom(address,address,uint256[],uint256[],bytes)": "infinite",
            "safeTransferFrom(address,address,uint256,uint256,bytes)": "infinite",
            "setApprovalForAll(address,bool)": "26794",
            "setURI(string)": "infinite",
            "supportsInterface(bytes4)": "infinite",
            "symbol()": "infinite",
            "tokenByIndex(uint256)": "4795",
            "tokenCountOf(address)": "infinite",
            "tokenOfOwnerByIndex(address,uint256)": "infinite",
            "tokens(uint256,uint256)": "infinite",
            "tokensOf(address,uint256,uint256)": "infinite",
            "totalSupply()": "2427",
            "totalSupply(uint256)": "2494",
            "uri(uint256)": "infinite"
        }
    }
}