{
    "contractName": "CRC1155NatureAutoIdFixedMetadata",
    "abi": [
        {
            "inputs": [
                {
                    "internalType": "string",
                    "name": "name_",
                    "type": "string"
                },
                {
                    "internalType": "string",
                    "name": "symbol_",
                    "type": "string"
                }
            ],
            "stateMutability": "nonpayable",
            "type": "constructor"
        },
        {
            "anonymous": false,
            "inputs": [
                {
                    "indexed": true,
                    "internalType": "address",
                    "name": "account",
                    "type": "address"
                },
                {
                    "indexed": true,
                    "internalType": "address",
                    "name": "operator",
                    "type": "address"
                },
                {
                    "indexed": false,
                    "internalType": "bool",
                    "name": "approved",
                    "type": "bool"
                }
            ],
            "name": "ApprovalForAll",
            "type": "event"
        },
        {
            "anonymous": false,
            "inputs": [
                {
                    "indexed": true,
                    "internalType": "bytes32",
                    "name": "role",
                    "type": "bytes32"
                },
                {
                    "indexed": true,
                    "internalType": "bytes32",
                    "name": "previousAdminRole",
                    "type": "bytes32"
                },
                {
                    "indexed": true,
                    "internalType": "bytes32",
                    "name": "newAdminRole",
                    "type": "bytes32"
                }
            ],
            "name": "RoleAdminChanged",
            "type": "event"
        },
        {
            "anonymous": false,
            "inputs": [
                {
                    "indexed": true,
                    "internalType": "bytes32",
                    "name": "role",
                    "type": "bytes32"
                },
                {
                    "indexed": true,
                    "internalType": "address",
                    "name": "account",
                    "type": "address"
                },
                {
                    "indexed": true,
                    "internalType": "address",
                    "name": "sender",
                    "type": "address"
                }
            ],
            "name": "RoleGranted",
            "type": "event"
        },
        {
            "anonymous": false,
            "inputs": [
                {
                    "indexed": true,
                    "internalType": "bytes32",
                    "name": "role",
                    "type": "bytes32"
                },
                {
                    "indexed": true,
                    "internalType": "address",
                    "name": "account",
                    "type": "address"
                },
                {
                    "indexed": true,
                    "internalType": "address",
                    "name": "sender",
                    "type": "address"
                }
            ],
            "name": "RoleRevoked",
            "type": "event"
        },
        {
            "anonymous": false,
            "inputs": [
                {
                    "indexed": true,
                    "internalType": "address",
                    "name": "operator",
                    "type": "address"
                },
                {
                    "indexed": true,
                    "internalType": "address",
                    "name": "from",
                    "type": "address"
                },
                {
                    "indexed": true,
                    "internalType": "address",
                    "name": "to",
                    "type": "address"
                },
                {
                    "indexed": false,
                    "internalType": "uint256[]",
                    "name": "ids",
                    "type": "uint256[]"
                },
                {
                    "indexed": false,
                    "internalType": "uint256[]",
                    "name": "values",
                    "type": "uint256[]"
                }
            ],
            "name": "TransferBatch",
            "type": "event"
        },
        {
            "anonymous": false,
            "inputs": [
                {
                    "indexed": true,
                    "internalType": "address",
                    "name": "operator",
                    "type": "address"
                },
                {
                    "indexed": true,
                    "internalType": "address",
                    "name": "from",
                    "type": "address"
                },
                {
                    "indexed": true,
                    "internalType": "address",
                    "name": "to",
                    "type": "address"
                },
                {
                    "indexed": false,
                    "internalType": "uint256",
                    "name": "id",
                    "type": "uint256"
                },
                {
                    "indexed": false,
                    "internalType": "uint256",
                    "name": "value",
                    "type": "uint256"
                }
            ],
            "name": "TransferSingle",
            "type": "event"
        },
        {
            "anonymous": false,
            "inputs": [
                {
                    "indexed": false,
                    "internalType": "string",
                    "name": "value",
                    "type": "string"
                },
                {
                    "indexed": true,
                    "internalType": "uint256",
                    "name": "id",
                    "type": "uint256"
                }
            ],
            "name": "URI",
            "type": "event"
        },
        {
            "inputs": [],
            "name": "DEFAULT_ADMIN_ROLE",
            "outputs": [
                {
                    "internalType": "bytes32",
                    "name": "",
                    "type": "bytes32"
                }
            ],
            "stateMutability": "view",
            "type": "function"
        },
        {
            "inputs": [],
            "name": "MINTER_ROLE",
            "outputs": [
                {
                    "internalType": "bytes32",
                    "name": "",
                    "type": "bytes32"
                }
            ],
            "stateMutability": "view",
            "type": "function"
        },
        {
            "inputs": [],
            "name": "PAUSER_ROLE",
            "outputs": [
                {
                    "internalType": "bytes32",
                    "name": "",
                    "type": "bytes32"
                }
            ],
            "stateMutability": "view",
            "type": "function"
        },
        {
            "inputs": [
                {
                    "internalType": "address",
                    "name": "minter_",
                    "type": "address"
                }
            ],
            "name": "addMinter",
            "outputs": [],
            "stateMutability": "nonpayable",
            "type": "function"
        },
        {
            "inputs": [
                {
                    "internalType": "address",
                    "name": "account",
                    "type": "address"
                },
                {
                    "internalType": "uint256",
                    "name": "id",
                    "type": "uint256"
                }
            ],
            "name": "balanceOf",
            "outputs": [
                {
                    "internalType": "uint256",
                    "name": "",
                    "type": "uint256"
                }
            ],
            "stateMutability": "view",
            "type": "function"
        },
        {
            "inputs": [
                {
                    "internalType": "address[]",
                    "name": "accounts",
                    "type": "address[]"
                },
                {
                    "internalType": "uint256[]",
                    "name": "ids",
                    "type": "uint256[]"
                }
            ],
            "name": "balanceOfBatch",
            "outputs": [
                {
                    "internalType": "uint256[]",
                    "name": "",
                    "type": "uint256[]"
                }
            ],
            "stateMutability": "view",
            "type": "function"
        },
        {
            "inputs": [
                {
                    "internalType": "address[]",
                    "name": "_initialOwners",
                    "type": "address[]"
                },
                {
                    "internalType": "string[]",
                    "name": "_metadatas",
                    "type": "string[]"
                }
            ],
            "name": "batchAddItemByAddress",
            "outputs": [],
            "stateMutability": "nonpayable",
            "type": "function"
        },
        {
            "inputs": [
                {
                    "internalType": "address",
                    "name": "_to",
                    "type": "address"
                },
                {
                    "internalType": "string[]",
                    "name": "_metadatas",
                    "type": "string[]"
                }
            ],
            "name": "batchAddItemByNumber",
            "outputs": [],
            "stateMutability": "nonpayable",
            "type": "function"
        },
        {
            "inputs": [
                {
                    "internalType": "uint256",
                    "name": "tokenId",
                    "type": "uint256"
                }
            ],
            "name": "exists",
            "outputs": [
                {
                    "internalType": "bool",
                    "name": "",
                    "type": "bool"
                }
            ],
            "stateMutability": "view",
            "type": "function"
        },
        {
            "inputs": [
                {
                    "internalType": "bytes32",
                    "name": "role",
                    "type": "bytes32"
                }
            ],
            "name": "getRoleAdmin",
            "outputs": [
                {
                    "internalType": "bytes32",
                    "name": "",
                    "type": "bytes32"
                }
            ],
            "stateMutability": "view",
            "type": "function"
        },
        {
            "inputs": [
                {
                    "internalType": "bytes32",
                    "name": "role",
                    "type": "bytes32"
                },
                {
                    "internalType": "uint256",
                    "name": "index",
                    "type": "uint256"
                }
            ],
            "name": "getRoleMember",
            "outputs": [
                {
                    "internalType": "address",
                    "name": "",
                    "type": "address"
                }
            ],
            "stateMutability": "view",
            "type": "function"
        },
        {
            "inputs": [
                {
                    "internalType": "bytes32",
                    "name": "role",
                    "type": "bytes32"
                }
            ],
            "name": "getRoleMemberCount",
            "outputs": [
                {
                    "internalType": "uint256",
                    "name": "",
                    "type": "uint256"
                }
            ],
            "stateMutability": "view",
            "type": "function"
        },
        {
            "inputs": [
                {
                    "internalType": "bytes32",
                    "name": "role",
                    "type": "bytes32"
                },
                {
                    "internalType": "address",
                    "name": "account",
                    "type": "address"
                }
            ],
            "name": "grantRole",
            "outputs": [],
            "stateMutability": "nonpayable",
            "type": "function"
        },
        {
            "inputs": [
                {
                    "internalType": "bytes32",
                    "name": "role",
                    "type": "bytes32"
                },
                {
                    "internalType": "address",
                    "name": "account",
                    "type": "address"
                }
            ],
            "name": "hasRole",
            "outputs": [
                {
                    "internalType": "bool",
                    "name": "",
                    "type": "bool"
                }
            ],
            "stateMutability": "view",
            "type": "function"
        },
        {
            "inputs": [
                {
                    "internalType": "address",
                    "name": "account",
                    "type": "address"
                },
                {
                    "internalType": "address",
                    "name": "operator",
                    "type": "address"
                }
            ],
            "name": "isApprovedForAll",
            "outputs": [
                {
                    "internalType": "bool",
                    "name": "",
                    "type": "bool"
                }
            ],
            "stateMutability": "view",
            "type": "function"
        },
        {
            "inputs": [
                {
                    "internalType": "address",
                    "name": "to",
                    "type": "address"
                },
                {
                    "internalType": "string",
                    "name": "_metadata",
                    "type": "string"
                },
                {
                    "internalType": "bytes",
                    "name": "data",
                    "type": "bytes"
                }
            ],
            "name": "mint",
            "outputs": [],
            "stateMutability": "nonpayable",
            "type": "function"
        },
        {
            "inputs": [
                {
                    "internalType": "address",
                    "name": "to",
                    "type": "address"
                },
                {
                    "internalType": "string[]",
                    "name": "_metadatas",
                    "type": "string[]"
                },
                {
                    "internalType": "bytes",
                    "name": "data",
                    "type": "bytes"
                }
            ],
            "name": "mintBatch",
            "outputs": [],
            "stateMutability": "nonpayable",
            "type": "function"
        },
        {
            "inputs": [],
            "name": "name",
            "outputs": [
                {
                    "internalType": "string",
                    "name": "",
                    "type": "string"
                }
            ],
            "stateMutability": "view",
            "type": "function"
        },
        {
            "inputs": [
                {
                    "internalType": "address",
                    "name": "minter_",
                    "type": "address"
                }
            ],
            "name": "removeMinter",
            "outputs": [],
            "stateMutability": "nonpayable",
            "type": "function"
        },
        {
            "inputs": [
                {
                    "internalType": "bytes32",
                    "name": "role",
                    "type": "bytes32"
                },
                {
                    "internalType": "address",
                    "name": "account",
                    "type": "address"
                }
            ],
            "name": "renounceRole",
            "outputs": [],
            "stateMutability": "nonpayable",
            "type": "function"
        },
        {
            "inputs": [
                {
                    "internalType": "bytes32",
                    "name": "role",
                    "type": "bytes32"
                },
                {
                    "internalType": "address",
                    "name": "account",
                    "type": "address"
                }
            ],
            "name": "revokeRole",
            "outputs": [],
            "stateMutability": "nonpayable",
            "type": "function"
        },
        {
            "inputs": [
                {
                    "internalType": "address",
                    "name": "from",
                    "type": "address"
                },
                {
                    "internalType": "address",
                    "name": "to",
                    "type": "address"
                },
                {
                    "internalType": "uint256[]",
                    "name": "ids",
                    "type": "uint256[]"
                },
                {
                    "internalType": "uint256[]",
                    "name": "amounts",
                    "type": "uint256[]"
                },
                {
                    "internalType": "bytes",
                    "name": "data",
                    "type": "bytes"
                }
            ],
            "name": "safeBatchTransferFrom",
            "outputs": [],
            "stateMutability": "nonpayable",
            "type": "function"
        },
        {
            "inputs": [
                {
                    "internalType": "address",
                    "name": "from",
                    "type": "address"
                },
                {
                    "internalType": "address",
                    "name": "to",
                    "type": "address"
                },
                {
                    "internalType": "uint256",
                    "name": "id",
                    "type": "uint256"
                },
                {
                    "internalType": "uint256",
                    "name": "amount",
                    "type": "uint256"
                },
                {
                    "internalType": "bytes",
                    "name": "data",
                    "type": "bytes"
                }
            ],
            "name": "safeTransferFrom",
            "outputs": [],
            "stateMutability": "nonpayable",
            "type": "function"
        },
        {
            "inputs": [
                {
                    "internalType": "address",
                    "name": "operator",
                    "type": "address"
                },
                {
                    "internalType": "bool",
                    "name": "approved",
                    "type": "bool"
                }
            ],
            "name": "setApprovalForAll",
            "outputs": [],
            "stateMutability": "nonpayable",
            "type": "function"
        },
        {
            "inputs": [
                {
                    "internalType": "bytes4",
                    "name": "interfaceId",
                    "type": "bytes4"
                }
            ],
            "name": "supportsInterface",
            "outputs": [
                {
                    "internalType": "bool",
                    "name": "",
                    "type": "bool"
                }
            ],
            "stateMutability": "view",
            "type": "function"
        },
        {
            "inputs": [],
            "name": "symbol",
            "outputs": [
                {
                    "internalType": "string",
                    "name": "",
                    "type": "string"
                }
            ],
            "stateMutability": "view",
            "type": "function"
        },
        {
            "inputs": [
                {
                    "internalType": "uint256",
                    "name": "index",
                    "type": "uint256"
                }
            ],
            "name": "tokenByIndex",
            "outputs": [
                {
                    "internalType": "uint256",
                    "name": "",
                    "type": "uint256"
                }
            ],
            "stateMutability": "view",
            "type": "function"
        },
        {
            "inputs": [
                {
                    "internalType": "address",
                    "name": "owner",
                    "type": "address"
                }
            ],
            "name": "tokenCountOf",
            "outputs": [
                {
                    "internalType": "uint256",
                    "name": "",
                    "type": "uint256"
                }
            ],
            "stateMutability": "view",
            "type": "function"
        },
        {
            "inputs": [
                {
                    "internalType": "uint256",
                    "name": "",
                    "type": "uint256"
                }
            ],
            "name": "tokenMetaData",
            "outputs": [
                {
                    "internalType": "string",
                    "name": "",
                    "type": "string"
                }
            ],
            "stateMutability": "view",
            "type": "function"
        },
        {
            "inputs": [
                {
                    "internalType": "address",
                    "name": "owner",
                    "type": "address"
                },
                {
                    "internalType": "uint256",
                    "name": "index",
                    "type": "uint256"
                }
            ],
            "name": "tokenOfOwnerByIndex",
            "outputs": [
                {
                    "internalType": "uint256",
                    "name": "",
                    "type": "uint256"
                }
            ],
            "stateMutability": "view",
            "type": "function"
        },
        {
            "inputs": [
                {
                    "internalType": "uint256",
                    "name": "offset",
                    "type": "uint256"
                },
                {
                    "internalType": "uint256",
                    "name": "limit",
                    "type": "uint256"
                }
            ],
            "name": "tokens",
            "outputs": [
                {
                    "internalType": "uint256",
                    "name": "total",
                    "type": "uint256"
                },
                {
                    "internalType": "uint256[]",
                    "name": "tokenIds",
                    "type": "uint256[]"
                }
            ],
            "stateMutability": "view",
            "type": "function"
        },
        {
            "inputs": [
                {
                    "internalType": "address",
                    "name": "owner",
                    "type": "address"
                },
                {
                    "internalType": "uint256",
                    "name": "offset",
                    "type": "uint256"
                },
                {
                    "internalType": "uint256",
                    "name": "limit",
                    "type": "uint256"
                }
            ],
            "name": "tokensOf",
            "outputs": [
                {
                    "internalType": "uint256",
                    "name": "total",
                    "type": "uint256"
                },
                {
                    "internalType": "uint256[]",
                    "name": "tokenIds",
                    "type": "uint256[]"
                }
            ],
            "stateMutability": "view",
            "type": "function"
        },
        {
            "inputs": [],
            "name": "totalSupply",
            "outputs": [
                {
                    "internalType": "uint256",
                    "name": "",
                    "type": "uint256"
                }
            ],
            "stateMutability": "view",
            "type": "function"
        },
        {
            "inputs": [
                {
                    "internalType": "uint256",
                    "name": "tokenId",
                    "type": "uint256"
                }
            ],
            "name": "totalSupply",
            "outputs": [
                {
                    "internalType": "uint256",
                    "name": "",
                    "type": "uint256"
                }
            ],
            "stateMutability": "view",
            "type": "function"
        },
        {
            "inputs": [
                {
                    "internalType": "uint256",
                    "name": "_tokenId",
                    "type": "uint256"
                }
            ],
            "name": "uri",
            "outputs": [
                {
                    "internalType": "string",
                    "name": "",
                    "type": "string"
                }
            ],
            "stateMutability": "view",
            "type": "function"
        }
    ],
    "bytecode": "0x60806040523480156200001157600080fd5b50604051620037d1380380620037d1833981016040819052620000349162000616565b8181604051806020016040528060008152506200005781620002e860201b60201c565b5081516200006d906009906020850190620004a3565b5080516200008390600a906020840190620004a3565b506200009191505062000301565b156200027b5760408051600180825281830190925260009160208083019080368337019050509050600081600081518110620000d157620000d162000680565b6001600160a01b0390921660209283029190910190910152604051630809469f60e11b8152730888000000000000000000000000000000000001906310128d3e906200012290849060040162000696565b600060405180830381600087803b1580156200013d57600080fd5b505af115801562000152573d6000803e3d6000fd5b505060405163c55b6bb760e01b81523060048201526000602482015261011160931b925063c55b6bb79150604401600060405180830381600087803b1580156200019b57600080fd5b505af1158015620001b0573d6000803e3d6000fd5b50506040516364efb22b60e01b81523060048201526000925061011160931b91506364efb22b90602401602060405180830381865afa158015620001f8573d6000803e3d6000fd5b505050506040513d601f19601f820116820180604052508101906200021e9190620006e5565b6001600160a01b031614620002795760405162461bcd60e51b815260206004820152601560248201527f726571756972652061646d696e203d3d206e756c6c0000000000000000000000604482015260640160405180910390fd5b505b620002886000336200033c565b620002b47f9f2df0fed2c77648de5860a4cc508cd0818c85b8b8a1ab4ceeef8d981c8956a6336200033c565b620002e07f65d7a28e3265b37a6474929f336521b332c1681b933f6cb9f3376673440d862a336200033c565b505062000753565b8051620002fd906004906020840190620004a3565b5050565b600062000336731820a4b7618bde71dce8cdc73aab6c95905fad246001600160a01b03166200034860201b620012d91760201c565b15905090565b620002fd82826200034e565b3b151590565b6200036582826200039160201b620012df1760201c565b60008281526001602090815260409091206200038c9183906200136362000431821b17901c565b505050565b6000828152602081815260408083206001600160a01b038516845290915290205460ff16620002fd576000828152602081815260408083206001600160a01b03851684529091529020805460ff19166001179055620003ed3390565b6001600160a01b0316816001600160a01b0316837f2f8788117e7eff1d82e926ec794901d17c78024a50270940304540a733656f0d60405160405180910390a45050565b600062000448836001600160a01b03841662000451565b90505b92915050565b60008181526001830160205260408120546200049a575081546001818101845560008481526020808220909301849055845484825282860190935260409020919091556200044b565b5060006200044b565b828054620004b19062000717565b90600052602060002090601f016020900481019282620004d5576000855562000520565b82601f10620004f057805160ff191683800117855562000520565b8280016001018555821562000520579182015b828111156200052057825182559160200191906001019062000503565b506200052e92915062000532565b5090565b5b808211156200052e576000815560010162000533565b634e487b7160e01b600052604160045260246000fd5b600082601f8301126200057157600080fd5b81516001600160401b03808211156200058e576200058e62000549565b604051601f8301601f19908116603f01168101908282118183101715620005b957620005b962000549565b81604052838152602092508683858801011115620005d657600080fd5b600091505b83821015620005fa5785820183015181830184015290820190620005db565b838211156200060c5760008385830101525b9695505050505050565b600080604083850312156200062a57600080fd5b82516001600160401b03808211156200064257600080fd5b62000650868387016200055f565b935060208501519150808211156200066757600080fd5b5062000676858286016200055f565b9150509250929050565b634e487b7160e01b600052603260045260246000fd5b6020808252825182820181905260009190848201906040850190845b81811015620006d95783516001600160a01b031683529284019291840191600101620006b2565b50909695505050505050565b600060208284031215620006f857600080fd5b81516001600160a01b03811681146200071057600080fd5b9392505050565b600181811c908216806200072c57607f821691505b6020821081036200074d57634e487b7160e01b600052602260045260246000fd5b50919050565b61306e80620007636000396000f3fe608060405234801561001057600080fd5b50600436106102105760003560e01c80638d75533f11610125578063b722938a116100ad578063d547741f1161007c578063d547741f146104b6578063e63ab1e9146104c9578063e985e9c5146104f0578063f242432a1461052c578063f5314c971461053f57600080fd5b8063b722938a1461045b578063bd85b0391461046e578063ca15c8731461048e578063d5391393146104a157600080fd5b8063983b2d56116100f4578063983b2d5614610407578063a217fddf1461041a578063a22cb46514610422578063a4c7ec6914610435578063af6a34761461044857600080fd5b80638d75533f146103ae5780639010d07c146103c157806391d14854146103ec57806395d89b41146103ff57600080fd5b80632f2ff15d116101a857806339e4401a1161017757806339e4401a146103335780634e1273f4146103465780634f558e79146103665780634f6ccce7146103885780638b4864d61461039b57600080fd5b80632f2ff15d146102e75780632f745c59146102fa5780633092afd51461030d57806336568abe1461032057600080fd5b806318160ddd116101e457806318160ddd1461028657806323185dc91461028e578063248a9ca3146102af5780632eb2c2d6146102d257600080fd5b8062fdd58e1461021557806301ffc9a71461023b57806306fdde031461025e5780630e89341c14610273575b600080fd5b610228610223366004612393565b610552565b6040519081526020015b60405180910390f35b61024e6102493660046123d3565b6105ee565b6040519015158152602001610232565b610266610608565b6040516102329190612448565b61026661028136600461245b565b61069a565b6102286107d1565b6102a161029c366004612474565b6107e2565b6040516102329291906124e2565b6102286102bd36600461245b565b60009081526020819052604090206001015490565b6102e56102e0366004612656565b6108d4565b005b6102e56102f53660046126ff565b61096b565b610228610308366004612393565b610996565b6102e561031b36600461272b565b6109bf565b6102e561032e3660046126ff565b6109da565b6102e561034136600461278a565b610a58565b6103596103543660046127dc565b610b3f565b60405161023291906128a6565b61024e61037436600461245b565b600090815260076020526040902054151590565b61022861039636600461245b565b610c68565b6102a16103a93660046128b9565b610c75565b6102e56103bc3660046128db565b610d5d565b6103d46103cf3660046128b9565b610ded565b6040516001600160a01b039091168152602001610232565b61024e6103fa3660046126ff565b610e05565b610266610e2e565b6102e561041536600461272b565b610e3d565b610228600081565b6102e5610430366004612965565b610e55565b6102e56104433660046129a1565b610e60565b61026661045636600461245b565b61100b565b61022861046936600461272b565b6110a5565b61022861047c36600461245b565b60009081526007602052604090205490565b61022861049c36600461245b565b6110c6565b61022860008051602061301983398151915281565b6102e56104c43660046126ff565b6110dd565b6102287f65d7a28e3265b37a6474929f336521b332c1681b933f6cb9f3376673440d862a81565b61024e6104fe366004612a1a565b6001600160a01b03918216600090815260036020908152604080832093909416825291909152205460ff1690565b6102e561053a366004612a44565b611103565b6102e561054d366004612aa8565b61118a565b60006001600160a01b0383166105c35760405162461bcd60e51b815260206004820152602b60248201527f455243313135353a2062616c616e636520717565727920666f7220746865207a60448201526a65726f206164647265737360a81b60648201526084015b60405180910390fd5b5060008181526002602090815260408083206001600160a01b03861684529091529020545b92915050565b60006105f982611378565b806105e857506105e88261139d565b60606009805461061790612b13565b80601f016020809104026020016040519081016040528092919081815260200182805461064390612b13565b80156106905780601f1061066557610100808354040283529160200191610690565b820191906000526020600020905b81548152906001019060200180831161067357829003601f168201915b5050505050905090565b6060600082116106e15760405162461bcd60e51b81526020600482015260126024820152712fba37b5b2b724b21036bab9ba101f10181760711b60448201526064016105ba565b600b548211156107335760405162461bcd60e51b815260206004820152601e60248201527f5f746f6b656e4964206d757374203c20616d6f756e74206d696e7465642e000060448201526064016105ba565b6000828152600c60205260409020805461074c90612b13565b80601f016020809104026020016040519081016040528092919081815260200182805461077890612b13565b80156107c55780601f1061079a576101008083540402835291602001916107c5565b820191906000526020600020905b8154815290600101906020018083116107a857829003601f168201915b50505050509050919050565b60006107dd60056113c2565b905090565b600060606107ef856110a5565b91508115806107fe5750818410155b1561081857506040805160008152602081019091526108cc565b600061082e6108278587612b63565b84906113cc565b905061083a8582612b7b565b6001600160401b0381111561085157610851612503565b60405190808252806020026020018201604052801561087a578160200160208202803683370190505b509150845b818110156108c9576108918782610996565b8361089c8884612b7b565b815181106108ac576108ac612b92565b6020908102919091010152806108c181612ba8565b91505061087f565b50505b935093915050565b6001600160a01b0385163314806108f057506108f085336104fe565b6109575760405162461bcd60e51b815260206004820152603260248201527f455243313135353a207472616e736665722063616c6c6572206973206e6f74206044820152711bdddb995c881b9bdc88185c1c1c9bdd995960721b60648201526084016105ba565b61096485858585856113e2565b5050505050565b6000828152602081905260409020600101546109878133611587565b61099183836115eb565b505050565b6001600160a01b03821660009081526008602052604081206109b8908361160d565b9392505050565b6109d7600080516020613019833981519152826110dd565b50565b6001600160a01b0381163314610a4a5760405162461bcd60e51b815260206004820152602f60248201527f416363657373436f6e74726f6c3a2063616e206f6e6c792072656e6f756e636560448201526e103937b632b9903337b91039b2b63360891b60648201526084016105ba565b610a548282611619565b5050565b610a7060008051602061301983398151915233610e05565b610a8c5760405162461bcd60e51b81526004016105ba90612bc1565b8060005b8181101561096457838382818110610aaa57610aaa612b92565b9050602002810190610abc9190612c1e565b600c6000610ac9600b5490565b610ad4906001612b63565b81526020019081526020016000209190610aef92919061226a565b50610b1f85610afd600b5490565b610b08906001612b63565b60016040518060200160405280600081525061163b565b610b2d600b80546001019055565b80610b3781612ba8565b915050610a90565b60608151835114610ba45760405162461bcd60e51b815260206004820152602960248201527f455243313135353a206163636f756e747320616e6420696473206c656e677468604482015268040dad2e6dac2e8c6d60bb1b60648201526084016105ba565b600083516001600160401b03811115610bbf57610bbf612503565b604051908082528060200260200182016040528015610be8578160200160208202803683370190505b50905060005b8451811015610c6057610c33858281518110610c0c57610c0c612b92565b6020026020010151858381518110610c2657610c26612b92565b6020026020010151610552565b828281518110610c4557610c45612b92565b6020908102919091010152610c5981612ba8565b9050610bee565b509392505050565b60006105e860058361160d565b60006060610c816107d1565b9150811580610c905750818410155b15610caa5750604080516000815260208101909152610d56565b6000610cb96108278587612b63565b9050610cc58582612b7b565b6001600160401b03811115610cdc57610cdc612503565b604051908082528060200260200182016040528015610d05578160200160208202803683370190505b509150845b81811015610d5357610d1b81610c68565b83610d268884612b7b565b81518110610d3657610d36612b92565b602090810291909101015280610d4b81612ba8565b915050610d0a565b50505b9250929050565b610d7560008051602061301983398151915233610e05565b610d915760405162461bcd60e51b81526004016105ba90612bc1565b6000610d9c600b5490565b610da7906001612b63565b6000818152600c602090815260409091208551929350610dcb9290918601906122ee565b50610dd9848260018561163b565b610de7600b80546001019055565b50505050565b60008281526001602052604081206109b8908361160d565b6000918252602082815260408084206001600160a01b0393909316845291905290205460ff1690565b6060600a805461061790612b13565b6109d76000805160206130198339815191528261096b565b610a54338383611713565b610e7860008051602061301983398151915233610e05565b610e945760405162461bcd60e51b81526004016105ba90612bc1565b816000816001600160401b03811115610eaf57610eaf612503565b604051908082528060200260200182016040528015610ed8578160200160208202803683370190505b5090506000826001600160401b03811115610ef557610ef5612503565b604051908082528060200260200182016040528015610f1e578160200160208202803683370190505b50905060005b83811015610ff557600b54610f3a906001612b63565b838281518110610f4c57610f4c612b92565b602002602001018181525050868682818110610f6a57610f6a612b92565b9050602002810190610f7c9190612c1e565b600c6000868581518110610f9257610f92612b92565b602002602001015181526020019081526020016000209190610fb592919061226a565b50610fc4600b80546001019055565b6001828281518110610fd857610fd8612b92565b602090810291909101015280610fed81612ba8565b915050610f24565b50611002878383876117f3565b50505050505050565b600c602052600090815260409020805461102490612b13565b80601f016020809104026020016040519081016040528092919081815260200182805461105090612b13565b801561109d5780601f106110725761010080835404028352916020019161109d565b820191906000526020600020905b81548152906001019060200180831161108057829003601f168201915b505050505081565b6001600160a01b03811660009081526008602052604081206105e8906113c2565b60008181526001602052604081206105e8906113c2565b6000828152602081905260409020600101546110f98133611587565b6109918383611619565b6001600160a01b03851633148061111f575061111f85336104fe565b61117d5760405162461bcd60e51b815260206004820152602960248201527f455243313135353a2063616c6c6572206973206e6f74206f776e6572206e6f7260448201526808185c1c1c9bdd995960ba1b60648201526084016105ba565b610964858585858561194e565b6111a260008051602061301983398151915233610e05565b6111be5760405162461bcd60e51b81526004016105ba90612bc1565b82811461121b5760405162461bcd60e51b815260206004820152602560248201527f4f776e657273206f72204d65746164617461732773206c656e677468206d69736044820152640dac2e8c6d60db1b60648201526084016105ba565b8260005b818110156112d15783838281811061123957611239612b92565b905060200281019061124b9190612c1e565b600c6000611258600b5490565b611263906001612b63565b8152602001908152602001600020919061127e92919061226a565b506112b186868381811061129457611294612b92565b90506020020160208101906112a9919061272b565b600b54610afd565b6112bf600b80546001019055565b806112c981612ba8565b91505061121f565b505050505050565b3b151590565b6112e98282610e05565b610a54576000828152602081815260408083206001600160a01b03851684529091529020805460ff1916600117905561131f3390565b6001600160a01b0316816001600160a01b0316837f2f8788117e7eff1d82e926ec794901d17c78024a50270940304540a733656f0d60405160405180910390a45050565b60006109b8836001600160a01b038416611a66565b60006001600160e01b03198216635a05180f60e01b14806105e857506105e882611ab5565b60006001600160e01b03198216633dfc30a960e01b14806105e857506105e882611aea565b60006105e8825490565b60008183106113db57816109b8565b5090919050565b81518351146114035760405162461bcd60e51b81526004016105ba90612c64565b6001600160a01b0384166114295760405162461bcd60e51b81526004016105ba90612cac565b33611438818787878787611b2a565b60005b845181101561152157600085828151811061145857611458612b92565b60200260200101519050600085838151811061147657611476612b92565b60209081029190910181015160008481526002835260408082206001600160a01b038e1683529093529190912054909150818110156114c75760405162461bcd60e51b81526004016105ba90612cf1565b60008381526002602090815260408083206001600160a01b038e8116855292528083208585039055908b16825281208054849290611506908490612b63565b925050819055505050508061151a90612ba8565b905061143b565b50846001600160a01b0316866001600160a01b0316826001600160a01b03167f4a39dc06d4c0dbc64b70af90fd698a233a518aa5d07e595d983b8c0526c8f7fb8787604051611571929190612d3b565b60405180910390a46112d1818787878787611cc3565b6115918282610e05565b610a54576115a9816001600160a01b03166014611e1e565b6115b4836020611e1e565b6040516020016115c5929190612d69565b60408051601f198184030181529082905262461bcd60e51b82526105ba91600401612448565b6115f582826112df565b60008281526001602052604090206109919082611363565b60006109b88383611fb9565b6116238282611fe3565b60008281526001602052604090206109919082612048565b6001600160a01b0384166116615760405162461bcd60e51b81526004016105ba90612dde565b33611681816000876116728861205d565b61167b8861205d565b87611b2a565b60008481526002602090815260408083206001600160a01b0389168452909152812080548592906116b3908490612b63565b909155505060408051858152602081018590526001600160a01b0380881692600092918516917fc3d58168c5ae7397731d063d5bbf3d657854427343f4c083240f7aacaa2d0f62910160405180910390a4610964816000878787876120a8565b816001600160a01b0316836001600160a01b0316036117865760405162461bcd60e51b815260206004820152602960248201527f455243313135353a2073657474696e6720617070726f76616c20737461747573604482015268103337b91039b2b63360b91b60648201526084016105ba565b6001600160a01b03838116600081815260036020908152604080832094871680845294825291829020805460ff191686151590811790915591519182527f17307eab39ab6107e8899845ad3d59bd9653f200f220920489ca2b5937696c31910160405180910390a3505050565b6001600160a01b0384166118195760405162461bcd60e51b81526004016105ba90612dde565b815183511461183a5760405162461bcd60e51b81526004016105ba90612c64565b3361184a81600087878787611b2a565b60005b84518110156118e65783818151811061186857611868612b92565b60200260200101516002600087848151811061188657611886612b92565b602002602001015181526020019081526020016000206000886001600160a01b03166001600160a01b0316815260200190815260200160002060008282546118ce9190612b63565b909155508190506118de81612ba8565b91505061184d565b50846001600160a01b031660006001600160a01b0316826001600160a01b03167f4a39dc06d4c0dbc64b70af90fd698a233a518aa5d07e595d983b8c0526c8f7fb8787604051611937929190612d3b565b60405180910390a461096481600087878787611cc3565b6001600160a01b0384166119745760405162461bcd60e51b81526004016105ba90612cac565b336119848187876116728861205d565b60008481526002602090815260408083206001600160a01b038a168452909152902054838110156119c75760405162461bcd60e51b81526004016105ba90612cf1565b60008581526002602090815260408083206001600160a01b038b8116855292528083208785039055908816825281208054869290611a06908490612b63565b909155505060408051868152602081018690526001600160a01b03808916928a821692918616917fc3d58168c5ae7397731d063d5bbf3d657854427343f4c083240f7aacaa2d0f62910160405180910390a46110028288888888886120a8565b6000818152600183016020526040812054611aad575081546001818101845560008481526020808220909301849055845484825282860190935260409020919091556105e8565b5060006105e8565b60006001600160e01b03198216637965db0b60e01b14806105e857506301ffc9a760e01b6001600160e01b03198316146105e8565b60006001600160e01b03198216636cdb3d1360e11b1480611b1b57506001600160e01b031982166303a24d0760e21b145b806105e857506105e882611378565b60005b8351811015611002576000848281518110611b4a57611b4a612b92565b602002602001015190506000848381518110611b6857611b68612b92565b602002602001015190508060001480611b925750866001600160a01b0316886001600160a01b0316145b15611b9e575050611cb3565b6001600160a01b038816611bef5760008281526007602052604081205490819003611bd057611bce600584612163565b505b611bda8282612b63565b60008481526007602052604090205550611c23565b80611bfa8984610552565b03611c23576001600160a01b0388166000908152600860205260409020611c21908361216f565b505b6001600160a01b038716611c7b5760008281526007602052604081208054839290611c4f908490612b7b565b90915550506000828152600760205260408120549003611c7657611c7460058361216f565b505b611cb0565b611c858783610552565b600003611cb0576001600160a01b0387166000908152600860205260409020611cae9083612163565b505b50505b611cbc81612ba8565b9050611b2d565b6001600160a01b0384163b156112d15760405163bc197c8160e01b81526001600160a01b0385169063bc197c8190611d079089908990889088908890600401612e1f565b6020604051808303816000875af1925050508015611d42575060408051601f3d908101601f19168201909252611d3f91810190612e7d565b60015b611dee57611d4e612e9a565b806308c379a003611d875750611d62612eb6565b80611d6d5750611d89565b8060405162461bcd60e51b81526004016105ba9190612448565b505b60405162461bcd60e51b815260206004820152603460248201527f455243313135353a207472616e7366657220746f206e6f6e20455243313135356044820152732932b1b2b4bb32b91034b6b83632b6b2b73a32b960611b60648201526084016105ba565b6001600160e01b0319811663bc197c8160e01b146110025760405162461bcd60e51b81526004016105ba90612f3f565b60606000611e2d836002612f87565b611e38906002612b63565b6001600160401b03811115611e4f57611e4f612503565b6040519080825280601f01601f191660200182016040528015611e79576020820181803683370190505b509050600360fc1b81600081518110611e9457611e94612b92565b60200101906001600160f81b031916908160001a905350600f60fb1b81600181518110611ec357611ec3612b92565b60200101906001600160f81b031916908160001a9053506000611ee7846002612f87565b611ef2906001612b63565b90505b6001811115611f6a576f181899199a1a9b1b9c1cb0b131b232b360811b85600f1660108110611f2657611f26612b92565b1a60f81b828281518110611f3c57611f3c612b92565b60200101906001600160f81b031916908160001a90535060049490941c93611f6381612fa6565b9050611ef5565b5083156109b85760405162461bcd60e51b815260206004820181905260248201527f537472696e67733a20686578206c656e67746820696e73756666696369656e7460448201526064016105ba565b6000826000018281548110611fd057611fd0612b92565b9060005260206000200154905092915050565b611fed8282610e05565b15610a54576000828152602081815260408083206001600160a01b0385168085529252808320805460ff1916905551339285917ff6391f5c32d9c69d2a47ea670b442974b53935d1edc7fd64eb21e047a839171b9190a45050565b60006109b8836001600160a01b038416612177565b6040805160018082528183019092526060916000919060208083019080368337019050509050828160008151811061209757612097612b92565b602090810291909101015292915050565b6001600160a01b0384163b156112d15760405163f23a6e6160e01b81526001600160a01b0385169063f23a6e61906120ec9089908990889088908890600401612fbd565b6020604051808303816000875af1925050508015612127575060408051601f3d908101601f1916820190925261212491810190612e7d565b60015b61213357611d4e612e9a565b6001600160e01b0319811663f23a6e6160e01b146110025760405162461bcd60e51b81526004016105ba90612f3f565b60006109b88383611a66565b60006109b883835b6000818152600183016020526040812054801561226057600061219b600183612b7b565b85549091506000906121af90600190612b7b565b90508181146122145760008660000182815481106121cf576121cf612b92565b90600052602060002001549050808760000184815481106121f2576121f2612b92565b6000918252602080832090910192909255918252600188019052604090208390555b855486908061222557612225613002565b6001900381819060005260206000200160009055905585600101600086815260200190815260200160002060009055600193505050506105e8565b60009150506105e8565b82805461227690612b13565b90600052602060002090601f01602090048101928261229857600085556122de565b82601f106122b15782800160ff198235161785556122de565b828001600101855582156122de579182015b828111156122de5782358255916020019190600101906122c3565b506122ea929150612362565b5090565b8280546122fa90612b13565b90600052602060002090601f01602090048101928261231c57600085556122de565b82601f1061233557805160ff19168380011785556122de565b828001600101855582156122de579182015b828111156122de578251825591602001919060010190612347565b5b808211156122ea5760008155600101612363565b80356001600160a01b038116811461238e57600080fd5b919050565b600080604083850312156123a657600080fd5b6123af83612377565b946020939093013593505050565b6001600160e01b0319811681146109d757600080fd5b6000602082840312156123e557600080fd5b81356109b8816123bd565b60005b8381101561240b5781810151838201526020016123f3565b83811115610de75750506000910152565b600081518084526124348160208601602086016123f0565b601f01601f19169290920160200192915050565b6020815260006109b8602083018461241c565b60006020828403121561246d57600080fd5b5035919050565b60008060006060848603121561248957600080fd5b61249284612377565b95602085013595506040909401359392505050565b600081518084526020808501945080840160005b838110156124d7578151875295820195908201906001016124bb565b509495945050505050565b8281526040602082015260006124fb60408301846124a7565b949350505050565b634e487b7160e01b600052604160045260246000fd5b601f8201601f191681016001600160401b038111828210171561253e5761253e612503565b6040525050565b60006001600160401b0382111561255e5761255e612503565b5060051b60200190565b600082601f83011261257957600080fd5b8135602061258682612545565b6040516125938282612519565b83815260059390931b85018201928281019150868411156125b357600080fd5b8286015b848110156125ce57803583529183019183016125b7565b509695505050505050565b60006001600160401b038311156125f2576125f2612503565b604051612609601f8501601f191660200182612519565b80915083815284848401111561261e57600080fd5b83836020830137600060208583010152509392505050565b600082601f83011261264757600080fd5b6109b8838335602085016125d9565b600080600080600060a0868803121561266e57600080fd5b61267786612377565b945061268560208701612377565b935060408601356001600160401b03808211156126a157600080fd5b6126ad89838a01612568565b945060608801359150808211156126c357600080fd5b6126cf89838a01612568565b935060808801359150808211156126e557600080fd5b506126f288828901612636565b9150509295509295909350565b6000806040838503121561271257600080fd5b8235915061272260208401612377565b90509250929050565b60006020828403121561273d57600080fd5b6109b882612377565b60008083601f84011261275857600080fd5b5081356001600160401b0381111561276f57600080fd5b6020830191508360208260051b8501011115610d5657600080fd5b60008060006040848603121561279f57600080fd5b6127a884612377565b925060208401356001600160401b038111156127c357600080fd5b6127cf86828701612746565b9497909650939450505050565b600080604083850312156127ef57600080fd5b82356001600160401b038082111561280657600080fd5b818501915085601f83011261281a57600080fd5b8135602061282782612545565b6040516128348282612519565b83815260059390931b850182019282810191508984111561285457600080fd5b948201945b838610156128795761286a86612377565b82529482019490820190612859565b9650508601359250508082111561288f57600080fd5b5061289c85828601612568565b9150509250929050565b6020815260006109b860208301846124a7565b600080604083850312156128cc57600080fd5b50508035926020909101359150565b6000806000606084860312156128f057600080fd5b6128f984612377565b925060208401356001600160401b038082111561291557600080fd5b818601915086601f83011261292957600080fd5b612938878335602085016125d9565b9350604086013591508082111561294e57600080fd5b5061295b86828701612636565b9150509250925092565b6000806040838503121561297857600080fd5b61298183612377565b91506020830135801515811461299657600080fd5b809150509250929050565b600080600080606085870312156129b757600080fd5b6129c085612377565b935060208501356001600160401b03808211156129dc57600080fd5b6129e888838901612746565b90955093506040870135915080821115612a0157600080fd5b50612a0e87828801612636565b91505092959194509250565b60008060408385031215612a2d57600080fd5b612a3683612377565b915061272260208401612377565b600080600080600060a08688031215612a5c57600080fd5b612a6586612377565b9450612a7360208701612377565b9350604086013592506060860135915060808601356001600160401b03811115612a9c57600080fd5b6126f288828901612636565b60008060008060408587031215612abe57600080fd5b84356001600160401b0380821115612ad557600080fd5b612ae188838901612746565b90965094506020870135915080821115612afa57600080fd5b50612b0787828801612746565b95989497509550505050565b600181811c90821680612b2757607f821691505b602082108103612b4757634e487b7160e01b600052602260045260246000fd5b50919050565b634e487b7160e01b600052601160045260246000fd5b60008219821115612b7657612b76612b4d565b500190565b600082821015612b8d57612b8d612b4d565b500390565b634e487b7160e01b600052603260045260246000fd5b600060018201612bba57612bba612b4d565b5060010190565b6020808252603f908201527f435243313135354e61747572654175746f496446697865644d6574616461746160408201527f3a206d7573742068617665206d696e74657220726f6c6520746f206d696e7400606082015260800190565b6000808335601e19843603018112612c3557600080fd5b8301803591506001600160401b03821115612c4f57600080fd5b602001915036819003821315610d5657600080fd5b60208082526028908201527f455243313135353a2069647320616e6420616d6f756e7473206c656e677468206040820152670dad2e6dac2e8c6d60c31b606082015260800190565b60208082526025908201527f455243313135353a207472616e7366657220746f20746865207a65726f206164604082015264647265737360d81b606082015260800190565b6020808252602a908201527f455243313135353a20696e73756666696369656e742062616c616e636520666f60408201526939103a3930b739b332b960b11b606082015260800190565b604081526000612d4e60408301856124a7565b8281036020840152612d6081856124a7565b95945050505050565b7f416363657373436f6e74726f6c3a206163636f756e7420000000000000000000815260008351612da18160178501602088016123f0565b7001034b99036b4b9b9b4b733903937b6329607d1b6017918401918201528351612dd28160288401602088016123f0565b01602801949350505050565b60208082526021908201527f455243313135353a206d696e7420746f20746865207a65726f206164647265736040820152607360f81b606082015260800190565b6001600160a01b0386811682528516602082015260a060408201819052600090612e4b908301866124a7565b8281036060840152612e5d81866124a7565b90508281036080840152612e71818561241c565b98975050505050505050565b600060208284031215612e8f57600080fd5b81516109b8816123bd565b600060033d1115612eb35760046000803e5060005160e01c5b90565b600060443d1015612ec45790565b6040516003193d81016004833e81513d6001600160401b038160248401118184111715612ef357505050505090565b8285019150815181811115612f0b5750505050505090565b843d8701016020828501011115612f255750505050505090565b612f3460208286010187612519565b509095945050505050565b60208082526028908201527f455243313135353a204552433131353552656365697665722072656a656374656040820152676420746f6b656e7360c01b606082015260800190565b6000816000190483118215151615612fa157612fa1612b4d565b500290565b600081612fb557612fb5612b4d565b506000190190565b6001600160a01b03868116825285166020820152604081018490526060810183905260a060808201819052600090612ff79083018461241c565b979650505050505050565b634e487b7160e01b600052603160045260246000fdfe9f2df0fed2c77648de5860a4cc508cd0818c85b8b8a1ab4ceeef8d981c8956a6a26469706673582212204e5e5d154418513893c1347e36d51e7390d3cb36a098b902be0f6a64cf6ca5d164736f6c634300080e0033",
    "sourcePath": "d:/sol/NFT2.0/contracts/CRC1155NatureAutoIdFixedMetadata.sol",
    "compiler": {
        "name": "solc",
        "version": "0.8.14+commit.80d49f37"
    },
    "functionHashes": {
        "DEFAULT_ADMIN_ROLE()": "a217fddf",
        "MINTER_ROLE()": "d5391393",
        "PAUSER_ROLE()": "e63ab1e9",
        "addMinter(address)": "983b2d56",
        "balanceOf(address,uint256)": "00fdd58e",
        "balanceOfBatch(address[],uint256[])": "4e1273f4",
        "batchAddItemByAddress(address[],string[])": "f5314c97",
        "batchAddItemByNumber(address,string[])": "39e4401a",
        "exists(uint256)": "4f558e79",
        "getRoleAdmin(bytes32)": "248a9ca3",
        "getRoleMember(bytes32,uint256)": "9010d07c",
        "getRoleMemberCount(bytes32)": "ca15c873",
        "grantRole(bytes32,address)": "2f2ff15d",
        "hasRole(bytes32,address)": "91d14854",
        "isApprovedForAll(address,address)": "e985e9c5",
        "mint(address,string,bytes)": "8d75533f",
        "mintBatch(address,string[],bytes)": "a4c7ec69",
        "name()": "06fdde03",
        "removeMinter(address)": "3092afd5",
        "renounceRole(bytes32,address)": "36568abe",
        "revokeRole(bytes32,address)": "d547741f",
        "safeBatchTransferFrom(address,address,uint256[],uint256[],bytes)": "2eb2c2d6",
        "safeTransferFrom(address,address,uint256,uint256,bytes)": "f242432a",
        "setApprovalForAll(address,bool)": "a22cb465",
        "supportsInterface(bytes4)": "01ffc9a7",
        "symbol()": "95d89b41",
        "tokenByIndex(uint256)": "4f6ccce7",
        "tokenCountOf(address)": "b722938a",
        "tokenMetaData(uint256)": "af6a3476",
        "tokenOfOwnerByIndex(address,uint256)": "2f745c59",
        "tokens(uint256,uint256)": "8b4864d6",
        "tokensOf(address,uint256,uint256)": "23185dc9",
        "totalSupply()": "18160ddd",
        "totalSupply(uint256)": "bd85b039",
        "uri(uint256)": "0e89341c"
    },
    "gasEstimates": {
        "creation": {
            "codeDepositCost": "2479600",
            "executionCost": "infinite",
            "totalCost": "infinite"
        },
        "external": {
            "DEFAULT_ADMIN_ROLE()": "251",
            "MINTER_ROLE()": "infinite",
            "PAUSER_ROLE()": "250",
            "addMinter(address)": "infinite",
            "balanceOf(address,uint256)": "2726",
            "balanceOfBatch(address[],uint256[])": "infinite",
            "batchAddItemByAddress(address[],string[])": "infinite",
            "batchAddItemByNumber(address,string[])": "infinite",
            "exists(uint256)": "2539",
            "getRoleAdmin(bytes32)": "2526",
            "getRoleMember(bytes32,uint256)": "infinite",
            "getRoleMemberCount(bytes32)": "infinite",
            "grantRole(bytes32,address)": "infinite",
            "hasRole(bytes32,address)": "2752",
            "isApprovedForAll(address,address)": "infinite",
            "mint(address,string,bytes)": "infinite",
            "mintBatch(address,string[],bytes)": "infinite",
            "name()": "infinite",
            "removeMinter(address)": "infinite",
            "renounceRole(bytes32,address)": "infinite",
            "revokeRole(bytes32,address)": "infinite",
            "safeBatchTransferFrom(address,address,uint256[],uint256[],bytes)": "infinite",
            "safeTransferFrom(address,address,uint256,uint256,bytes)": "infinite",
            "setApprovalForAll(address,bool)": "26772",
            "supportsInterface(bytes4)": "infinite",
            "symbol()": "infinite",
            "tokenByIndex(uint256)": "4773",
            "tokenCountOf(address)": "infinite",
            "tokenMetaData(uint256)": "infinite",
            "tokenOfOwnerByIndex(address,uint256)": "infinite",
            "tokens(uint256,uint256)": "infinite",
            "tokensOf(address,uint256,uint256)": "infinite",
            "totalSupply()": "2405",
            "totalSupply(uint256)": "2494",
            "uri(uint256)": "infinite"
        }
    }
}