{
    "contractName": "CRC721NatureAutoIdFixedMetadata",
    "abi": [
        {
            "inputs": [
                {
                    "internalType": "string",
                    "name": "name_",
                    "type": "string"
                },
                {
                    "internalType": "string",
                    "name": "symbol_",
                    "type": "string"
                }
            ],
            "stateMutability": "nonpayable",
            "type": "constructor"
        },
        {
            "anonymous": false,
            "inputs": [
                {
                    "indexed": true,
                    "internalType": "address",
                    "name": "owner",
                    "type": "address"
                },
                {
                    "indexed": true,
                    "internalType": "address",
                    "name": "approved",
                    "type": "address"
                },
                {
                    "indexed": true,
                    "internalType": "uint256",
                    "name": "tokenId",
                    "type": "uint256"
                }
            ],
            "name": "Approval",
            "type": "event"
        },
        {
            "anonymous": false,
            "inputs": [
                {
                    "indexed": true,
                    "internalType": "address",
                    "name": "owner",
                    "type": "address"
                },
                {
                    "indexed": true,
                    "internalType": "address",
                    "name": "operator",
                    "type": "address"
                },
                {
                    "indexed": false,
                    "internalType": "bool",
                    "name": "approved",
                    "type": "bool"
                }
            ],
            "name": "ApprovalForAll",
            "type": "event"
        },
        {
            "anonymous": false,
            "inputs": [
                {
                    "indexed": true,
                    "internalType": "bytes32",
                    "name": "role",
                    "type": "bytes32"
                },
                {
                    "indexed": true,
                    "internalType": "bytes32",
                    "name": "previousAdminRole",
                    "type": "bytes32"
                },
                {
                    "indexed": true,
                    "internalType": "bytes32",
                    "name": "newAdminRole",
                    "type": "bytes32"
                }
            ],
            "name": "RoleAdminChanged",
            "type": "event"
        },
        {
            "anonymous": false,
            "inputs": [
                {
                    "indexed": true,
                    "internalType": "bytes32",
                    "name": "role",
                    "type": "bytes32"
                },
                {
                    "indexed": true,
                    "internalType": "address",
                    "name": "account",
                    "type": "address"
                },
                {
                    "indexed": true,
                    "internalType": "address",
                    "name": "sender",
                    "type": "address"
                }
            ],
            "name": "RoleGranted",
            "type": "event"
        },
        {
            "anonymous": false,
            "inputs": [
                {
                    "indexed": true,
                    "internalType": "bytes32",
                    "name": "role",
                    "type": "bytes32"
                },
                {
                    "indexed": true,
                    "internalType": "address",
                    "name": "account",
                    "type": "address"
                },
                {
                    "indexed": true,
                    "internalType": "address",
                    "name": "sender",
                    "type": "address"
                }
            ],
            "name": "RoleRevoked",
            "type": "event"
        },
        {
            "anonymous": false,
            "inputs": [
                {
                    "indexed": true,
                    "internalType": "address",
                    "name": "from",
                    "type": "address"
                },
                {
                    "indexed": true,
                    "internalType": "address",
                    "name": "to",
                    "type": "address"
                },
                {
                    "indexed": true,
                    "internalType": "uint256",
                    "name": "tokenId",
                    "type": "uint256"
                }
            ],
            "name": "Transfer",
            "type": "event"
        },
        {
            "inputs": [],
            "name": "DEFAULT_ADMIN_ROLE",
            "outputs": [
                {
                    "internalType": "bytes32",
                    "name": "",
                    "type": "bytes32"
                }
            ],
            "stateMutability": "view",
            "type": "function"
        },
        {
            "inputs": [],
            "name": "MINTER_ROLE",
            "outputs": [
                {
                    "internalType": "bytes32",
                    "name": "",
                    "type": "bytes32"
                }
            ],
            "stateMutability": "view",
            "type": "function"
        },
        {
            "inputs": [],
            "name": "PAUSER_ROLE",
            "outputs": [
                {
                    "internalType": "bytes32",
                    "name": "",
                    "type": "bytes32"
                }
            ],
            "stateMutability": "view",
            "type": "function"
        },
        {
            "inputs": [
                {
                    "internalType": "address",
                    "name": "minter_",
                    "type": "address"
                }
            ],
            "name": "addMinter",
            "outputs": [],
            "stateMutability": "nonpayable",
            "type": "function"
        },
        {
            "inputs": [
                {
                    "internalType": "address",
                    "name": "to",
                    "type": "address"
                },
                {
                    "internalType": "uint256",
                    "name": "tokenId",
                    "type": "uint256"
                }
            ],
            "name": "approve",
            "outputs": [],
            "stateMutability": "nonpayable",
            "type": "function"
        },
        {
            "inputs": [
                {
                    "internalType": "address",
                    "name": "owner",
                    "type": "address"
                }
            ],
            "name": "balanceOf",
            "outputs": [
                {
                    "internalType": "uint256",
                    "name": "",
                    "type": "uint256"
                }
            ],
            "stateMutability": "view",
            "type": "function"
        },
        {
            "inputs": [
                {
                    "internalType": "address[]",
                    "name": "_initialOwners",
                    "type": "address[]"
                },
                {
                    "internalType": "string[]",
                    "name": "_metadatas",
                    "type": "string[]"
                }
            ],
            "name": "batchAddItemByAddress",
            "outputs": [],
            "stateMutability": "nonpayable",
            "type": "function"
        },
        {
            "inputs": [
                {
                    "internalType": "uint256",
                    "name": "tokenId",
                    "type": "uint256"
                }
            ],
            "name": "getApproved",
            "outputs": [
                {
                    "internalType": "address",
                    "name": "",
                    "type": "address"
                }
            ],
            "stateMutability": "view",
            "type": "function"
        },
        {
            "inputs": [
                {
                    "internalType": "bytes32",
                    "name": "role",
                    "type": "bytes32"
                }
            ],
            "name": "getRoleAdmin",
            "outputs": [
                {
                    "internalType": "bytes32",
                    "name": "",
                    "type": "bytes32"
                }
            ],
            "stateMutability": "view",
            "type": "function"
        },
        {
            "inputs": [
                {
                    "internalType": "bytes32",
                    "name": "role",
                    "type": "bytes32"
                },
                {
                    "internalType": "uint256",
                    "name": "index",
                    "type": "uint256"
                }
            ],
            "name": "getRoleMember",
            "outputs": [
                {
                    "internalType": "address",
                    "name": "",
                    "type": "address"
                }
            ],
            "stateMutability": "view",
            "type": "function"
        },
        {
            "inputs": [
                {
                    "internalType": "bytes32",
                    "name": "role",
                    "type": "bytes32"
                }
            ],
            "name": "getRoleMemberCount",
            "outputs": [
                {
                    "internalType": "uint256",
                    "name": "",
                    "type": "uint256"
                }
            ],
            "stateMutability": "view",
            "type": "function"
        },
        {
            "inputs": [
                {
                    "internalType": "bytes32",
                    "name": "role",
                    "type": "bytes32"
                },
                {
                    "internalType": "address",
                    "name": "account",
                    "type": "address"
                }
            ],
            "name": "grantRole",
            "outputs": [],
            "stateMutability": "nonpayable",
            "type": "function"
        },
        {
            "inputs": [
                {
                    "internalType": "bytes32",
                    "name": "role",
                    "type": "bytes32"
                },
                {
                    "internalType": "address",
                    "name": "account",
                    "type": "address"
                }
            ],
            "name": "hasRole",
            "outputs": [
                {
                    "internalType": "bool",
                    "name": "",
                    "type": "bool"
                }
            ],
            "stateMutability": "view",
            "type": "function"
        },
        {
            "inputs": [
                {
                    "internalType": "address",
                    "name": "owner",
                    "type": "address"
                },
                {
                    "internalType": "address",
                    "name": "operator",
                    "type": "address"
                }
            ],
            "name": "isApprovedForAll",
            "outputs": [
                {
                    "internalType": "bool",
                    "name": "",
                    "type": "bool"
                }
            ],
            "stateMutability": "view",
            "type": "function"
        },
        {
            "inputs": [
                {
                    "internalType": "address",
                    "name": "to",
                    "type": "address"
                },
                {
                    "internalType": "string",
                    "name": "_metadata",
                    "type": "string"
                }
            ],
            "name": "mint",
            "outputs": [],
            "stateMutability": "nonpayable",
            "type": "function"
        },
        {
            "inputs": [
                {
                    "internalType": "address",
                    "name": "to",
                    "type": "address"
                },
                {
                    "internalType": "string[]",
                    "name": "_metadatas",
                    "type": "string[]"
                }
            ],
            "name": "mintBatch",
            "outputs": [],
            "stateMutability": "nonpayable",
            "type": "function"
        },
        {
            "inputs": [],
            "name": "name",
            "outputs": [
                {
                    "internalType": "string",
                    "name": "",
                    "type": "string"
                }
            ],
            "stateMutability": "view",
            "type": "function"
        },
        {
            "inputs": [
                {
                    "internalType": "uint256",
                    "name": "tokenId",
                    "type": "uint256"
                }
            ],
            "name": "ownerOf",
            "outputs": [
                {
                    "internalType": "address",
                    "name": "",
                    "type": "address"
                }
            ],
            "stateMutability": "view",
            "type": "function"
        },
        {
            "inputs": [
                {
                    "internalType": "address",
                    "name": "minter_",
                    "type": "address"
                }
            ],
            "name": "removeMinter",
            "outputs": [],
            "stateMutability": "nonpayable",
            "type": "function"
        },
        {
            "inputs": [
                {
                    "internalType": "bytes32",
                    "name": "role",
                    "type": "bytes32"
                },
                {
                    "internalType": "address",
                    "name": "account",
                    "type": "address"
                }
            ],
            "name": "renounceRole",
            "outputs": [],
            "stateMutability": "nonpayable",
            "type": "function"
        },
        {
            "inputs": [
                {
                    "internalType": "bytes32",
                    "name": "role",
                    "type": "bytes32"
                },
                {
                    "internalType": "address",
                    "name": "account",
                    "type": "address"
                }
            ],
            "name": "revokeRole",
            "outputs": [],
            "stateMutability": "nonpayable",
            "type": "function"
        },
        {
            "inputs": [
                {
                    "internalType": "address",
                    "name": "from",
                    "type": "address"
                },
                {
                    "internalType": "address",
                    "name": "to",
                    "type": "address"
                },
                {
                    "internalType": "uint256",
                    "name": "tokenId",
                    "type": "uint256"
                }
            ],
            "name": "safeTransferFrom",
            "outputs": [],
            "stateMutability": "nonpayable",
            "type": "function"
        },
        {
            "inputs": [
                {
                    "internalType": "address",
                    "name": "from",
                    "type": "address"
                },
                {
                    "internalType": "address",
                    "name": "to",
                    "type": "address"
                },
                {
                    "internalType": "uint256",
                    "name": "tokenId",
                    "type": "uint256"
                },
                {
                    "internalType": "bytes",
                    "name": "_data",
                    "type": "bytes"
                }
            ],
            "name": "safeTransferFrom",
            "outputs": [],
            "stateMutability": "nonpayable",
            "type": "function"
        },
        {
            "inputs": [
                {
                    "internalType": "address",
                    "name": "operator",
                    "type": "address"
                },
                {
                    "internalType": "bool",
                    "name": "approved",
                    "type": "bool"
                }
            ],
            "name": "setApprovalForAll",
            "outputs": [],
            "stateMutability": "nonpayable",
            "type": "function"
        },
        {
            "inputs": [
                {
                    "internalType": "bytes4",
                    "name": "interfaceId",
                    "type": "bytes4"
                }
            ],
            "name": "supportsInterface",
            "outputs": [
                {
                    "internalType": "bool",
                    "name": "",
                    "type": "bool"
                }
            ],
            "stateMutability": "view",
            "type": "function"
        },
        {
            "inputs": [],
            "name": "symbol",
            "outputs": [
                {
                    "internalType": "string",
                    "name": "",
                    "type": "string"
                }
            ],
            "stateMutability": "view",
            "type": "function"
        },
        {
            "inputs": [
                {
                    "internalType": "uint256",
                    "name": "index",
                    "type": "uint256"
                }
            ],
            "name": "tokenByIndex",
            "outputs": [
                {
                    "internalType": "uint256",
                    "name": "",
                    "type": "uint256"
                }
            ],
            "stateMutability": "view",
            "type": "function"
        },
        {
            "inputs": [
                {
                    "internalType": "uint256",
                    "name": "",
                    "type": "uint256"
                }
            ],
            "name": "tokenMetaData",
            "outputs": [
                {
                    "internalType": "string",
                    "name": "",
                    "type": "string"
                }
            ],
            "stateMutability": "view",
            "type": "function"
        },
        {
            "inputs": [
                {
                    "internalType": "address",
                    "name": "owner",
                    "type": "address"
                },
                {
                    "internalType": "uint256",
                    "name": "index",
                    "type": "uint256"
                }
            ],
            "name": "tokenOfOwnerByIndex",
            "outputs": [
                {
                    "internalType": "uint256",
                    "name": "",
                    "type": "uint256"
                }
            ],
            "stateMutability": "view",
            "type": "function"
        },
        {
            "inputs": [
                {
                    "internalType": "uint256",
                    "name": "_tokenId",
                    "type": "uint256"
                }
            ],
            "name": "tokenURI",
            "outputs": [
                {
                    "internalType": "string",
                    "name": "",
                    "type": "string"
                }
            ],
            "stateMutability": "view",
            "type": "function"
        },
        {
            "inputs": [
                {
                    "internalType": "uint256",
                    "name": "offset",
                    "type": "uint256"
                },
                {
                    "internalType": "uint256",
                    "name": "limit",
                    "type": "uint256"
                }
            ],
            "name": "tokens",
            "outputs": [
                {
                    "internalType": "uint256",
                    "name": "total",
                    "type": "uint256"
                },
                {
                    "internalType": "uint256[]",
                    "name": "tokenIds",
                    "type": "uint256[]"
                }
            ],
            "stateMutability": "view",
            "type": "function"
        },
        {
            "inputs": [
                {
                    "internalType": "address",
                    "name": "owner",
                    "type": "address"
                },
                {
                    "internalType": "uint256",
                    "name": "offset",
                    "type": "uint256"
                },
                {
                    "internalType": "uint256",
                    "name": "limit",
                    "type": "uint256"
                }
            ],
            "name": "tokensOf",
            "outputs": [
                {
                    "internalType": "uint256",
                    "name": "total",
                    "type": "uint256"
                },
                {
                    "internalType": "uint256[]",
                    "name": "tokenIds",
                    "type": "uint256[]"
                }
            ],
            "stateMutability": "view",
            "type": "function"
        },
        {
            "inputs": [],
            "name": "totalSupply",
            "outputs": [
                {
                    "internalType": "uint256",
                    "name": "",
                    "type": "uint256"
                }
            ],
            "stateMutability": "view",
            "type": "function"
        },
        {
            "inputs": [
                {
                    "internalType": "address",
                    "name": "from",
                    "type": "address"
                },
                {
                    "internalType": "address",
                    "name": "to",
                    "type": "address"
                },
                {
                    "internalType": "uint256",
                    "name": "tokenId",
                    "type": "uint256"
                }
            ],
            "name": "transferFrom",
            "outputs": [],
            "stateMutability": "nonpayable",
            "type": "function"
        }
    ],
    "bytecode": "0x60806040523480156200001157600080fd5b50604051620030ac380380620030ac8339810160408190526200003491620005e6565b8151829082906200004d90600290602085019062000473565b5080516200006390600390602084019062000473565b5062000071915050620002cd565b156200025b5760408051600180825281830190925260009160208083019080368337019050509050600081600081518110620000b157620000b162000650565b6001600160a01b0390921660209283029190910190910152604051630809469f60e11b8152730888000000000000000000000000000000000001906310128d3e906200010290849060040162000666565b600060405180830381600087803b1580156200011d57600080fd5b505af115801562000132573d6000803e3d6000fd5b505060405163c55b6bb760e01b81523060048201526000602482015261011160931b925063c55b6bb79150604401600060405180830381600087803b1580156200017b57600080fd5b505af115801562000190573d6000803e3d6000fd5b50506040516364efb22b60e01b81523060048201526000925061011160931b91506364efb22b90602401602060405180830381865afa158015620001d8573d6000803e3d6000fd5b505050506040513d601f19601f82011682018060405250810190620001fe9190620006b5565b6001600160a01b031614620002595760405162461bcd60e51b815260206004820152601560248201527f726571756972652061646d696e203d3d206e756c6c0000000000000000000000604482015260640160405180910390fd5b505b6200026860003362000308565b620002947f9f2df0fed2c77648de5860a4cc508cd0818c85b8b8a1ab4ceeef8d981c8956a63362000308565b620002c07f65d7a28e3265b37a6474929f336521b332c1681b933f6cb9f3376673440d862a3362000308565b50506001600d5562000723565b600062000302731820a4b7618bde71dce8cdc73aab6c95905fad246001600160a01b03166200031860201b620011b31760201c565b15905090565b6200031482826200031e565b5050565b3b151590565b6200033582826200036160201b620011b91760201c565b60008281526001602090815260409091206200035c9183906200123d62000401821b17901c565b505050565b6000828152602081815260408083206001600160a01b038516845290915290205460ff1662000314576000828152602081815260408083206001600160a01b03851684529091529020805460ff19166001179055620003bd3390565b6001600160a01b0316816001600160a01b0316837f2f8788117e7eff1d82e926ec794901d17c78024a50270940304540a733656f0d60405160405180910390a45050565b600062000418836001600160a01b03841662000421565b90505b92915050565b60008181526001830160205260408120546200046a575081546001818101845560008481526020808220909301849055845484825282860190935260409020919091556200041b565b5060006200041b565b8280546200048190620006e7565b90600052602060002090601f016020900481019282620004a55760008555620004f0565b82601f10620004c057805160ff1916838001178555620004f0565b82800160010185558215620004f0579182015b82811115620004f0578251825591602001919060010190620004d3565b50620004fe92915062000502565b5090565b5b80821115620004fe576000815560010162000503565b634e487b7160e01b600052604160045260246000fd5b600082601f8301126200054157600080fd5b81516001600160401b03808211156200055e576200055e62000519565b604051601f8301601f19908116603f0116810190828211818310171562000589576200058962000519565b81604052838152602092508683858801011115620005a657600080fd5b600091505b83821015620005ca5785820183015181830184015290820190620005ab565b83821115620005dc5760008385830101525b9695505050505050565b60008060408385031215620005fa57600080fd5b82516001600160401b03808211156200061257600080fd5b62000620868387016200052f565b935060208501519150808211156200063757600080fd5b5062000646858286016200052f565b9150509250929050565b634e487b7160e01b600052603260045260246000fd5b6020808252825182820181905260009190848201906040850190845b81811015620006a95783516001600160a01b03168352928401929184019160010162000682565b50909695505050505050565b600060208284031215620006c857600080fd5b81516001600160a01b0381168114620006e057600080fd5b9392505050565b600181811c90821680620006fc57607f821691505b6020821081036200071d57634e487b7160e01b600052602260045260246000fd5b50919050565b61297980620007336000396000f3fe608060405234801561001057600080fd5b50600436106102065760003560e01c80639010d07c1161011a578063c87b56dd116100ad578063d547741f1161007c578063d547741f1461046c578063e63ab1e91461047f578063e985e9c5146104a6578063ed0e31de146104e2578063f5314c97146104f557600080fd5b8063c87b56dd1461041e578063ca15c87314610431578063d0def52114610444578063d53913931461045757600080fd5b8063a217fddf116100e9578063a217fddf146103dd578063a22cb465146103e5578063af6a3476146103f8578063b88d4fde1461040b57600080fd5b80639010d07c1461039c57806391d14854146103af57806395d89b41146103c2578063983b2d56146103ca57600080fd5b80632f2ff15d1161019d57806342842e0e1161016c57806342842e0e1461033d5780634f6ccce7146103505780636352211e1461036357806370a08231146103765780638b4864d61461038957600080fd5b80632f2ff15d146102f15780632f745c59146103045780633092afd51461031757806336568abe1461032a57600080fd5b806318160ddd116101d957806318160ddd1461028857806323185dc91461029a57806323b872dd146102bb578063248a9ca3146102ce57600080fd5b806301ffc9a71461020b57806306fdde0314610233578063081812fc14610248578063095ea7b314610273575b600080fd5b61021e610219366004612132565b610508565b60405190151581526020015b60405180910390f35b61023b610528565b60405161022a91906121a7565b61025b6102563660046121ba565b6105ba565b6040516001600160a01b03909116815260200161022a565b6102866102813660046121ef565b610654565b005b600a545b60405190815260200161022a565b6102ad6102a8366004612219565b610769565b60405161022a92919061224c565b6102866102c936600461229a565b61085c565b61028c6102dc3660046121ba565b60009081526020819052604090206001015490565b6102866102ff3660046122d6565b61088d565b61028c6103123660046121ef565b6108b3565b610286610325366004612302565b610949565b6102866103383660046122d6565b610964565b61028661034b36600461229a565b6109e2565b61028c61035e3660046121ba565b6109fd565b61025b6103713660046121ba565b610a90565b61028c610384366004612302565b610b07565b6102ad61039736600461231d565b610b8e565b61025b6103aa36600461231d565b610c78565b61021e6103bd3660046122d6565b610c97565b61023b610cc0565b6102866103d8366004612302565b610ccf565b61028c600081565b6102866103f336600461233f565b610ce7565b61023b6104063660046121ba565b610cf2565b610286610419366004612407565b610d8c565b61023b61042c3660046121ba565b610dc4565b61028c61043f3660046121ba565b610ef1565b610286610452366004612483565b610f08565b61028c60008051602061292483398151915281565b61028661047a3660046122d6565b610f7c565b61028c7f65d7a28e3265b37a6474929f336521b332c1681b933f6cb9f3376673440d862a81565b61021e6104b43660046124e5565b6001600160a01b03918216600090815260076020908152604080832093909416825291909152205460ff1690565b6102866104f0366004612554565b610fa2565b6102866105033660046125a7565b61106b565b600061051382611252565b80610522575061052282611277565b92915050565b60606002805461053790612613565b80601f016020809104026020016040519081016040528092919081815260200182805461056390612613565b80156105b05780601f10610585576101008083540402835291602001916105b0565b820191906000526020600020905b81548152906001019060200180831161059357829003601f168201915b5050505050905090565b6000818152600460205260408120546001600160a01b03166106385760405162461bcd60e51b815260206004820152602c60248201527f4552433732313a20617070726f76656420717565727920666f72206e6f6e657860448201526b34b9ba32b73a103a37b5b2b760a11b60648201526084015b60405180910390fd5b506000908152600660205260409020546001600160a01b031690565b600061065f82610a90565b9050806001600160a01b0316836001600160a01b0316036106cc5760405162461bcd60e51b815260206004820152602160248201527f4552433732313a20617070726f76616c20746f2063757272656e74206f776e656044820152603960f91b606482015260840161062f565b336001600160a01b03821614806106e857506106e881336104b4565b61075a5760405162461bcd60e51b815260206004820152603860248201527f4552433732313a20617070726f76652063616c6c6572206973206e6f74206f7760448201527f6e6572206e6f7220617070726f76656420666f7220616c6c0000000000000000606482015260840161062f565b610764838361129c565b505050565b6000606061077685610b07565b91508115806107855750818410155b1561079f5750604080516000815260208101909152610854565b60006107b56107ae8587612663565b849061130a565b90506107c1858261267b565b67ffffffffffffffff8111156107d9576107d961237b565b604051908082528060200260200182016040528015610802578160200160208202803683370190505b509150845b818110156108515761081987826108b3565b83610824888461267b565b8151811061083457610834612692565b602090810291909101015280610849816126a8565b915050610807565b50505b935093915050565b6108663382611320565b6108825760405162461bcd60e51b815260040161062f906126c1565b610764838383611417565b6000828152602081905260409020600101546108a981336115c2565b6107648383611626565b60006108be83610b07565b82106109205760405162461bcd60e51b815260206004820152602b60248201527f455243373231456e756d657261626c653a206f776e657220696e646578206f7560448201526a74206f6620626f756e647360a81b606482015260840161062f565b506001600160a01b03919091166000908152600860209081526040808320938352929052205490565b61096160008051602061292483398151915282610f7c565b50565b6001600160a01b03811633146109d45760405162461bcd60e51b815260206004820152602f60248201527f416363657373436f6e74726f6c3a2063616e206f6e6c792072656e6f756e636560448201526e103937b632b9903337b91039b2b63360891b606482015260840161062f565b6109de8282611648565b5050565b61076483838360405180602001604052806000815250610d8c565b6000610a08600a5490565b8210610a6b5760405162461bcd60e51b815260206004820152602c60248201527f455243373231456e756d657261626c653a20676c6f62616c20696e646578206f60448201526b7574206f6620626f756e647360a01b606482015260840161062f565b600a8281548110610a7e57610a7e612692565b90600052602060002001549050919050565b6000818152600460205260408120546001600160a01b0316806105225760405162461bcd60e51b815260206004820152602960248201527f4552433732313a206f776e657220717565727920666f72206e6f6e657869737460448201526832b73a103a37b5b2b760b91b606482015260840161062f565b60006001600160a01b038216610b725760405162461bcd60e51b815260206004820152602a60248201527f4552433732313a2062616c616e636520717565727920666f7220746865207a65604482015269726f206164647265737360b01b606482015260840161062f565b506001600160a01b031660009081526005602052604090205490565b60006060610b9b600a5490565b9150811580610baa5750818410155b15610bc45750604080516000815260208101909152610c71565b6000610bd36107ae8587612663565b9050610bdf858261267b565b67ffffffffffffffff811115610bf757610bf761237b565b604051908082528060200260200182016040528015610c20578160200160208202803683370190505b509150845b81811015610c6e57610c36816109fd565b83610c41888461267b565b81518110610c5157610c51612692565b602090810291909101015280610c66816126a8565b915050610c25565b50505b9250929050565b6000828152600160205260408120610c90908361166a565b9392505050565b6000918252602082815260408084206001600160a01b0393909316845291905290205460ff1690565b60606003805461053790612613565b6109616000805160206129248339815191528261088d565b6109de338383611676565b600c6020526000908152604090208054610d0b90612613565b80601f0160208091040260200160405190810160405280929190818152602001828054610d3790612613565b8015610d845780601f10610d5957610100808354040283529160200191610d84565b820191906000526020600020905b815481529060010190602001808311610d6757829003601f168201915b505050505081565b610d963383611320565b610db25760405162461bcd60e51b815260040161062f906126c1565b610dbe84848484611744565b50505050565b6000818152600460205260409020546060906001600160a01b0316610e53576040805162461bcd60e51b81526020600482015260248101919091527f4352433732314e61747572654175746f496446697865644d657461646174613a60448201527f2055524920717565727920666f72206e6f6e6578697374656e7420746f6b656e606482015260840161062f565b6000828152600c602052604090208054610e6c90612613565b80601f0160208091040260200160405190810160405280929190818152602001828054610e9890612613565b8015610ee55780601f10610eba57610100808354040283529160200191610ee5565b820191906000526020600020905b815481529060010190602001808311610ec857829003601f168201915b50505050509050919050565b600081815260016020526040812061052290611777565b610f2060008051602061292483398151915233610c97565b610f3c5760405162461bcd60e51b815260040161062f90612712565b600d546000818152600c602090815260409091208351610f5e9285019061200f565b50610f698382611781565b610f74816001612663565b600d55505050565b600082815260208190526040902060010154610f9881336115c2565b6107648383611648565b610fba60008051602061292483398151915233610c97565b610fd65760405162461bcd60e51b815260040161062f90612712565b600d548160005b8181101561105657848482818110610ff757610ff7612692565b9050602002810190611009919061276f565b600c60006110178588612663565b81526020019081526020016000209190611032929190612093565b50611046866110418386612663565b611781565b61104f816126a8565b9050610fdd565b506110618183612663565b600d555050505050565b61108360008051602061292483398151915233610c97565b61109f5760405162461bcd60e51b815260040161062f90612712565b8281146110fc5760405162461bcd60e51b815260206004820152602560248201527f4f776e657273206f72204d65746164617461732773206c656e677468206d69736044820152640dac2e8c6d60db1b606482015260840161062f565b600d548360005b8181101561119d5784848281811061111d5761111d612692565b905060200281019061112f919061276f565b600c600061113d8588612663565b81526020019081526020016000209190611158929190612093565b5061118d87878381811061116e5761116e612692565b90506020020160208101906111839190612302565b6110418386612663565b611196816126a8565b9050611103565b506111a88183612663565b600d55505050505050565b3b151590565b6111c38282610c97565b6109de576000828152602081815260408083206001600160a01b03851684529091529020805460ff191660011790556111f93390565b6001600160a01b0316816001600160a01b0316837f2f8788117e7eff1d82e926ec794901d17c78024a50270940304540a733656f0d60405160405180910390a45050565b6000610c90836001600160a01b0384166118cf565b60006001600160e01b03198216635a05180f60e01b148061052257506105228261191e565b60006001600160e01b0319821663780e9d6360e01b1480610522575061052282611953565b600081815260066020526040902080546001600160a01b0319166001600160a01b03841690811790915581906112d182610a90565b6001600160a01b03167f8c5be1e5ebec7d5bd14f71427d1e84f3dd0314c0f7b2291e5b200ac8c7c3b92560405160405180910390a45050565b60008183106113195781610c90565b5090919050565b6000818152600460205260408120546001600160a01b03166113995760405162461bcd60e51b815260206004820152602c60248201527f4552433732313a206f70657261746f7220717565727920666f72206e6f6e657860448201526b34b9ba32b73a103a37b5b2b760a11b606482015260840161062f565b60006113a483610a90565b9050806001600160a01b0316846001600160a01b031614806113df5750836001600160a01b03166113d4846105ba565b6001600160a01b0316145b8061140f57506001600160a01b0380821660009081526007602090815260408083209388168352929052205460ff165b949350505050565b826001600160a01b031661142a82610a90565b6001600160a01b0316146114925760405162461bcd60e51b815260206004820152602960248201527f4552433732313a207472616e73666572206f6620746f6b656e2074686174206960448201526839903737ba1037bbb760b91b606482015260840161062f565b6001600160a01b0382166114f45760405162461bcd60e51b8152602060048201526024808201527f4552433732313a207472616e7366657220746f20746865207a65726f206164646044820152637265737360e01b606482015260840161062f565b6114ff838383611993565b61150a60008261129c565b6001600160a01b038316600090815260056020526040812080546001929061153390849061267b565b90915550506001600160a01b0382166000908152600560205260408120805460019290611561908490612663565b909155505060008181526004602052604080822080546001600160a01b0319166001600160a01b0386811691821790925591518493918716917fddf252ad1be2c89b69c2b068fc378daa952ba7f163c4a11628f55a4df523b3ef91a4505050565b6115cc8282610c97565b6109de576115e4816001600160a01b03166014611a4b565b6115ef836020611a4b565b6040516020016116009291906127b6565b60408051601f198184030181529082905262461bcd60e51b825261062f916004016121a7565b61163082826111b9565b6000828152600160205260409020610764908261123d565b6116528282611be7565b60008281526001602052604090206107649082611c4c565b6000610c908383611c61565b816001600160a01b0316836001600160a01b0316036116d75760405162461bcd60e51b815260206004820152601960248201527f4552433732313a20617070726f766520746f2063616c6c657200000000000000604482015260640161062f565b6001600160a01b03838116600081815260076020908152604080832094871680845294825291829020805460ff191686151590811790915591519182527f17307eab39ab6107e8899845ad3d59bd9653f200f220920489ca2b5937696c31910160405180910390a3505050565b61174f848484611417565b61175b84848484611c8b565b610dbe5760405162461bcd60e51b815260040161062f9061282b565b6000610522825490565b6001600160a01b0382166117d75760405162461bcd60e51b815260206004820181905260248201527f4552433732313a206d696e7420746f20746865207a65726f2061646472657373604482015260640161062f565b6000818152600460205260409020546001600160a01b03161561183c5760405162461bcd60e51b815260206004820152601c60248201527f4552433732313a20746f6b656e20616c7265616479206d696e74656400000000604482015260640161062f565b61184860008383611993565b6001600160a01b0382166000908152600560205260408120805460019290611871908490612663565b909155505060008181526004602052604080822080546001600160a01b0319166001600160a01b03861690811790915590518392907fddf252ad1be2c89b69c2b068fc378daa952ba7f163c4a11628f55a4df523b3ef908290a45050565b600081815260018301602052604081205461191657508154600181810184556000848152602080822090930184905584548482528286019093526040902091909155610522565b506000610522565b60006001600160e01b03198216637965db0b60e01b148061052257506301ffc9a760e01b6001600160e01b0319831614610522565b60006001600160e01b031982166380ac58cd60e01b148061198457506001600160e01b03198216635b5e139f60e01b145b80610522575061052282611252565b6001600160a01b0383166119ee576119e981600a80546000838152600b60205260408120829055600182018355919091527fc65a7bb8d6351c1cf70c95a316cc6a92839c986682d98bc35f958f4883f9d2a80155565b611a11565b816001600160a01b0316836001600160a01b031614611a1157611a118382611d8c565b6001600160a01b038216611a285761076481611e29565b826001600160a01b0316826001600160a01b031614610764576107648282611ed8565b60606000611a5a83600261287d565b611a65906002612663565b67ffffffffffffffff811115611a7d57611a7d61237b565b6040519080825280601f01601f191660200182016040528015611aa7576020820181803683370190505b509050600360fc1b81600081518110611ac257611ac2612692565b60200101906001600160f81b031916908160001a905350600f60fb1b81600181518110611af157611af1612692565b60200101906001600160f81b031916908160001a9053506000611b1584600261287d565b611b20906001612663565b90505b6001811115611b98576f181899199a1a9b1b9c1cb0b131b232b360811b85600f1660108110611b5457611b54612692565b1a60f81b828281518110611b6a57611b6a612692565b60200101906001600160f81b031916908160001a90535060049490941c93611b918161289c565b9050611b23565b508315610c905760405162461bcd60e51b815260206004820181905260248201527f537472696e67733a20686578206c656e67746820696e73756666696369656e74604482015260640161062f565b611bf18282610c97565b156109de576000828152602081815260408083206001600160a01b0385168085529252808320805460ff1916905551339285917ff6391f5c32d9c69d2a47ea670b442974b53935d1edc7fd64eb21e047a839171b9190a45050565b6000610c90836001600160a01b038416611f1c565b6000826000018281548110611c7857611c78612692565b9060005260206000200154905092915050565b60006001600160a01b0384163b15611d8157604051630a85bd0160e11b81526001600160a01b0385169063150b7a0290611ccf9033908990889088906004016128b3565b6020604051808303816000875af1925050508015611d0a575060408051601f3d908101601f19168201909252611d07918101906128f0565b60015b611d67573d808015611d38576040519150601f19603f3d011682016040523d82523d6000602084013e611d3d565b606091505b508051600003611d5f5760405162461bcd60e51b815260040161062f9061282b565b805181602001fd5b6001600160e01b031916630a85bd0160e11b14905061140f565b506001949350505050565b60006001611d9984610b07565b611da3919061267b565b600083815260096020526040902054909150808214611df6576001600160a01b03841660009081526008602090815260408083208584528252808320548484528184208190558352600990915290208190555b5060009182526009602090815260408084208490556001600160a01b039094168352600881528383209183525290812055565b600a54600090611e3b9060019061267b565b6000838152600b6020526040812054600a8054939450909284908110611e6357611e63612692565b9060005260206000200154905080600a8381548110611e8457611e84612692565b6000918252602080832090910192909255828152600b9091526040808220849055858252812055600a805480611ebc57611ebc61290d565b6001900381819060005260206000200160009055905550505050565b6000611ee383610b07565b6001600160a01b039093166000908152600860209081526040808320868452825280832085905593825260099052919091209190915550565b60008181526001830160205260408120548015612005576000611f4060018361267b565b8554909150600090611f549060019061267b565b9050818114611fb9576000866000018281548110611f7457611f74612692565b9060005260206000200154905080876000018481548110611f9757611f97612692565b6000918252602080832090910192909255918252600188019052604090208390555b8554869080611fca57611fca61290d565b600190038181906000526020600020016000905590558560010160008681526020019081526020016000206000905560019350505050610522565b6000915050610522565b82805461201b90612613565b90600052602060002090601f01602090048101928261203d5760008555612083565b82601f1061205657805160ff1916838001178555612083565b82800160010185558215612083579182015b82811115612083578251825591602001919060010190612068565b5061208f929150612107565b5090565b82805461209f90612613565b90600052602060002090601f0160209004810192826120c15760008555612083565b82601f106120da5782800160ff19823516178555612083565b82800160010185558215612083579182015b828111156120835782358255916020019190600101906120ec565b5b8082111561208f5760008155600101612108565b6001600160e01b03198116811461096157600080fd5b60006020828403121561214457600080fd5b8135610c908161211c565b60005b8381101561216a578181015183820152602001612152565b83811115610dbe5750506000910152565b6000815180845261219381602086016020860161214f565b601f01601f19169290920160200192915050565b602081526000610c90602083018461217b565b6000602082840312156121cc57600080fd5b5035919050565b80356001600160a01b03811681146121ea57600080fd5b919050565b6000806040838503121561220257600080fd5b61220b836121d3565b946020939093013593505050565b60008060006060848603121561222e57600080fd5b612237846121d3565b95602085013595506040909401359392505050565b6000604082018483526020604081850152818551808452606086019150828701935060005b8181101561228d57845183529383019391830191600101612271565b5090979650505050505050565b6000806000606084860312156122af57600080fd5b6122b8846121d3565b92506122c6602085016121d3565b9150604084013590509250925092565b600080604083850312156122e957600080fd5b823591506122f9602084016121d3565b90509250929050565b60006020828403121561231457600080fd5b610c90826121d3565b6000806040838503121561233057600080fd5b50508035926020909101359150565b6000806040838503121561235257600080fd5b61235b836121d3565b91506020830135801515811461237057600080fd5b809150509250929050565b634e487b7160e01b600052604160045260246000fd5b600067ffffffffffffffff808411156123ac576123ac61237b565b604051601f8501601f19908116603f011681019082821181831017156123d4576123d461237b565b816040528093508581528686860111156123ed57600080fd5b858560208301376000602087830101525050509392505050565b6000806000806080858703121561241d57600080fd5b612426856121d3565b9350612434602086016121d3565b925060408501359150606085013567ffffffffffffffff81111561245757600080fd5b8501601f8101871361246857600080fd5b61247787823560208401612391565b91505092959194509250565b6000806040838503121561249657600080fd5b61249f836121d3565b9150602083013567ffffffffffffffff8111156124bb57600080fd5b8301601f810185136124cc57600080fd5b6124db85823560208401612391565b9150509250929050565b600080604083850312156124f857600080fd5b612501836121d3565b91506122f9602084016121d3565b60008083601f84011261252157600080fd5b50813567ffffffffffffffff81111561253957600080fd5b6020830191508360208260051b8501011115610c7157600080fd5b60008060006040848603121561256957600080fd5b612572846121d3565b9250602084013567ffffffffffffffff81111561258e57600080fd5b61259a8682870161250f565b9497909650939450505050565b600080600080604085870312156125bd57600080fd5b843567ffffffffffffffff808211156125d557600080fd5b6125e18883890161250f565b909650945060208701359150808211156125fa57600080fd5b506126078782880161250f565b95989497509550505050565b600181811c9082168061262757607f821691505b60208210810361264757634e487b7160e01b600052602260045260246000fd5b50919050565b634e487b7160e01b600052601160045260246000fd5b600082198211156126765761267661264d565b500190565b60008282101561268d5761268d61264d565b500390565b634e487b7160e01b600052603260045260246000fd5b6000600182016126ba576126ba61264d565b5060010190565b60208082526031908201527f4552433732313a207472616e736665722063616c6c6572206973206e6f74206f6040820152701ddb995c881b9bdc88185c1c1c9bdd9959607a1b606082015260800190565b6020808252603e908201527f4352433732314e61747572654175746f496446697865644d657461646174613a60408201527f206d7573742068617665206d696e74657220726f6c6520746f206d696e740000606082015260800190565b6000808335601e1984360301811261278657600080fd5b83018035915067ffffffffffffffff8211156127a157600080fd5b602001915036819003821315610c7157600080fd5b7f416363657373436f6e74726f6c3a206163636f756e74200000000000000000008152600083516127ee81601785016020880161214f565b7001034b99036b4b9b9b4b733903937b6329607d1b601791840191820152835161281f81602884016020880161214f565b01602801949350505050565b60208082526032908201527f4552433732313a207472616e7366657220746f206e6f6e20455243373231526560408201527131b2b4bb32b91034b6b83632b6b2b73a32b960711b606082015260800190565b60008160001904831182151516156128975761289761264d565b500290565b6000816128ab576128ab61264d565b506000190190565b6001600160a01b03858116825284166020820152604081018390526080606082018190526000906128e69083018461217b565b9695505050505050565b60006020828403121561290257600080fd5b8151610c908161211c565b634e487b7160e01b600052603160045260246000fdfe9f2df0fed2c77648de5860a4cc508cd0818c85b8b8a1ab4ceeef8d981c8956a6a26469706673582212208d25a1bc4c6461914cc4da60aa25c285334d00f0fe982f925db2dd6a245ec9ce64736f6c634300080e0033",
    "sourcePath": "d:/sol/NFT2.0/contracts/CRC721NatureAutoIdFixedMetadata.sol",
    "compiler": {
        "name": "solc",
        "version": "0.8.14+commit.80d49f37"
    },
    "functionHashes": {
        "DEFAULT_ADMIN_ROLE()": "a217fddf",
        "MINTER_ROLE()": "d5391393",
        "PAUSER_ROLE()": "e63ab1e9",
        "addMinter(address)": "983b2d56",
        "approve(address,uint256)": "095ea7b3",
        "balanceOf(address)": "70a08231",
        "batchAddItemByAddress(address[],string[])": "f5314c97",
        "getApproved(uint256)": "081812fc",
        "getRoleAdmin(bytes32)": "248a9ca3",
        "getRoleMember(bytes32,uint256)": "9010d07c",
        "getRoleMemberCount(bytes32)": "ca15c873",
        "grantRole(bytes32,address)": "2f2ff15d",
        "hasRole(bytes32,address)": "91d14854",
        "isApprovedForAll(address,address)": "e985e9c5",
        "mint(address,string)": "d0def521",
        "mintBatch(address,string[])": "ed0e31de",
        "name()": "06fdde03",
        "ownerOf(uint256)": "6352211e",
        "removeMinter(address)": "3092afd5",
        "renounceRole(bytes32,address)": "36568abe",
        "revokeRole(bytes32,address)": "d547741f",
        "safeTransferFrom(address,address,uint256)": "42842e0e",
        "safeTransferFrom(address,address,uint256,bytes)": "b88d4fde",
        "setApprovalForAll(address,bool)": "a22cb465",
        "supportsInterface(bytes4)": "01ffc9a7",
        "symbol()": "95d89b41",
        "tokenByIndex(uint256)": "4f6ccce7",
        "tokenMetaData(uint256)": "af6a3476",
        "tokenOfOwnerByIndex(address,uint256)": "2f745c59",
        "tokenURI(uint256)": "c87b56dd",
        "tokens(uint256,uint256)": "8b4864d6",
        "tokensOf(address,uint256,uint256)": "23185dc9",
        "totalSupply()": "18160ddd",
        "transferFrom(address,address,uint256)": "23b872dd"
    },
    "gasEstimates": {
        "creation": {
            "codeDepositCost": "2123400",
            "executionCost": "infinite",
            "totalCost": "infinite"
        },
        "external": {
            "DEFAULT_ADMIN_ROLE()": "240",
            "MINTER_ROLE()": "infinite",
            "PAUSER_ROLE()": "261",
            "addMinter(address)": "infinite",
            "approve(address,uint256)": "infinite",
            "balanceOf(address)": "2700",
            "batchAddItemByAddress(address[],string[])": "infinite",
            "getApproved(uint256)": "4783",
            "getRoleAdmin(bytes32)": "2559",
            "getRoleMember(bytes32,uint256)": "infinite",
            "getRoleMemberCount(bytes32)": "infinite",
            "grantRole(bytes32,address)": "infinite",
            "hasRole(bytes32,address)": "2719",
            "isApprovedForAll(address,address)": "infinite",
            "mint(address,string)": "infinite",
            "mintBatch(address,string[])": "infinite",
            "name()": "infinite",
            "ownerOf(uint256)": "2645",
            "removeMinter(address)": "infinite",
            "renounceRole(bytes32,address)": "infinite",
            "revokeRole(bytes32,address)": "infinite",
            "safeTransferFrom(address,address,uint256)": "infinite",
            "safeTransferFrom(address,address,uint256,bytes)": "infinite",
            "setApprovalForAll(address,bool)": "26750",
            "supportsInterface(bytes4)": "infinite",
            "symbol()": "infinite",
            "tokenByIndex(uint256)": "6782",
            "tokenMetaData(uint256)": "infinite",
            "tokenOfOwnerByIndex(address,uint256)": "4998",
            "tokenURI(uint256)": "infinite",
            "tokens(uint256,uint256)": "infinite",
            "tokensOf(address,uint256,uint256)": "infinite",
            "totalSupply()": "2327",
            "transferFrom(address,address,uint256)": "infinite"
        }
    }
}