{
    "contractName": "CRC721NatureAutoId",
    "abi": [
        {
            "inputs": [
                {
                    "internalType": "string",
                    "name": "name_",
                    "type": "string"
                },
                {
                    "internalType": "string",
                    "name": "symbol_",
                    "type": "string"
                },
                {
                    "internalType": "string",
                    "name": "uri_",
                    "type": "string"
                }
            ],
            "stateMutability": "nonpayable",
            "type": "constructor"
        },
        {
            "anonymous": false,
            "inputs": [
                {
                    "indexed": true,
                    "internalType": "address",
                    "name": "owner",
                    "type": "address"
                },
                {
                    "indexed": true,
                    "internalType": "address",
                    "name": "approved",
                    "type": "address"
                },
                {
                    "indexed": true,
                    "internalType": "uint256",
                    "name": "tokenId",
                    "type": "uint256"
                }
            ],
            "name": "Approval",
            "type": "event"
        },
        {
            "anonymous": false,
            "inputs": [
                {
                    "indexed": true,
                    "internalType": "address",
                    "name": "owner",
                    "type": "address"
                },
                {
                    "indexed": true,
                    "internalType": "address",
                    "name": "operator",
                    "type": "address"
                },
                {
                    "indexed": false,
                    "internalType": "bool",
                    "name": "approved",
                    "type": "bool"
                }
            ],
            "name": "ApprovalForAll",
            "type": "event"
        },
        {
            "anonymous": false,
            "inputs": [
                {
                    "indexed": true,
                    "internalType": "bytes32",
                    "name": "role",
                    "type": "bytes32"
                },
                {
                    "indexed": true,
                    "internalType": "bytes32",
                    "name": "previousAdminRole",
                    "type": "bytes32"
                },
                {
                    "indexed": true,
                    "internalType": "bytes32",
                    "name": "newAdminRole",
                    "type": "bytes32"
                }
            ],
            "name": "RoleAdminChanged",
            "type": "event"
        },
        {
            "anonymous": false,
            "inputs": [
                {
                    "indexed": true,
                    "internalType": "bytes32",
                    "name": "role",
                    "type": "bytes32"
                },
                {
                    "indexed": true,
                    "internalType": "address",
                    "name": "account",
                    "type": "address"
                },
                {
                    "indexed": true,
                    "internalType": "address",
                    "name": "sender",
                    "type": "address"
                }
            ],
            "name": "RoleGranted",
            "type": "event"
        },
        {
            "anonymous": false,
            "inputs": [
                {
                    "indexed": true,
                    "internalType": "bytes32",
                    "name": "role",
                    "type": "bytes32"
                },
                {
                    "indexed": true,
                    "internalType": "address",
                    "name": "account",
                    "type": "address"
                },
                {
                    "indexed": true,
                    "internalType": "address",
                    "name": "sender",
                    "type": "address"
                }
            ],
            "name": "RoleRevoked",
            "type": "event"
        },
        {
            "anonymous": false,
            "inputs": [
                {
                    "indexed": true,
                    "internalType": "address",
                    "name": "from",
                    "type": "address"
                },
                {
                    "indexed": true,
                    "internalType": "address",
                    "name": "to",
                    "type": "address"
                },
                {
                    "indexed": true,
                    "internalType": "uint256",
                    "name": "tokenId",
                    "type": "uint256"
                }
            ],
            "name": "Transfer",
            "type": "event"
        },
        {
            "inputs": [],
            "name": "DEFAULT_ADMIN_ROLE",
            "outputs": [
                {
                    "internalType": "bytes32",
                    "name": "",
                    "type": "bytes32"
                }
            ],
            "stateMutability": "view",
            "type": "function"
        },
        {
            "inputs": [],
            "name": "MINTER_ROLE",
            "outputs": [
                {
                    "internalType": "bytes32",
                    "name": "",
                    "type": "bytes32"
                }
            ],
            "stateMutability": "view",
            "type": "function"
        },
        {
            "inputs": [],
            "name": "PAUSER_ROLE",
            "outputs": [
                {
                    "internalType": "bytes32",
                    "name": "",
                    "type": "bytes32"
                }
            ],
            "stateMutability": "view",
            "type": "function"
        },
        {
            "inputs": [
                {
                    "internalType": "address",
                    "name": "minter_",
                    "type": "address"
                }
            ],
            "name": "addMinter",
            "outputs": [],
            "stateMutability": "nonpayable",
            "type": "function"
        },
        {
            "inputs": [
                {
                    "internalType": "address",
                    "name": "to",
                    "type": "address"
                },
                {
                    "internalType": "uint256",
                    "name": "tokenId",
                    "type": "uint256"
                }
            ],
            "name": "approve",
            "outputs": [],
            "stateMutability": "nonpayable",
            "type": "function"
        },
        {
            "inputs": [
                {
                    "internalType": "address",
                    "name": "owner",
                    "type": "address"
                }
            ],
            "name": "balanceOf",
            "outputs": [
                {
                    "internalType": "uint256",
                    "name": "",
                    "type": "uint256"
                }
            ],
            "stateMutability": "view",
            "type": "function"
        },
        {
            "inputs": [
                {
                    "internalType": "address[]",
                    "name": "_initialOwners",
                    "type": "address[]"
                }
            ],
            "name": "batchAddItemByAddress",
            "outputs": [],
            "stateMutability": "nonpayable",
            "type": "function"
        },
        {
            "inputs": [
                {
                    "internalType": "uint256",
                    "name": "tokenId",
                    "type": "uint256"
                }
            ],
            "name": "getApproved",
            "outputs": [
                {
                    "internalType": "address",
                    "name": "",
                    "type": "address"
                }
            ],
            "stateMutability": "view",
            "type": "function"
        },
        {
            "inputs": [
                {
                    "internalType": "bytes32",
                    "name": "role",
                    "type": "bytes32"
                }
            ],
            "name": "getRoleAdmin",
            "outputs": [
                {
                    "internalType": "bytes32",
                    "name": "",
                    "type": "bytes32"
                }
            ],
            "stateMutability": "view",
            "type": "function"
        },
        {
            "inputs": [
                {
                    "internalType": "bytes32",
                    "name": "role",
                    "type": "bytes32"
                },
                {
                    "internalType": "uint256",
                    "name": "index",
                    "type": "uint256"
                }
            ],
            "name": "getRoleMember",
            "outputs": [
                {
                    "internalType": "address",
                    "name": "",
                    "type": "address"
                }
            ],
            "stateMutability": "view",
            "type": "function"
        },
        {
            "inputs": [
                {
                    "internalType": "bytes32",
                    "name": "role",
                    "type": "bytes32"
                }
            ],
            "name": "getRoleMemberCount",
            "outputs": [
                {
                    "internalType": "uint256",
                    "name": "",
                    "type": "uint256"
                }
            ],
            "stateMutability": "view",
            "type": "function"
        },
        {
            "inputs": [
                {
                    "internalType": "bytes32",
                    "name": "role",
                    "type": "bytes32"
                },
                {
                    "internalType": "address",
                    "name": "account",
                    "type": "address"
                }
            ],
            "name": "grantRole",
            "outputs": [],
            "stateMutability": "nonpayable",
            "type": "function"
        },
        {
            "inputs": [
                {
                    "internalType": "bytes32",
                    "name": "role",
                    "type": "bytes32"
                },
                {
                    "internalType": "address",
                    "name": "account",
                    "type": "address"
                }
            ],
            "name": "hasRole",
            "outputs": [
                {
                    "internalType": "bool",
                    "name": "",
                    "type": "bool"
                }
            ],
            "stateMutability": "view",
            "type": "function"
        },
        {
            "inputs": [
                {
                    "internalType": "address",
                    "name": "owner",
                    "type": "address"
                },
                {
                    "internalType": "address",
                    "name": "operator",
                    "type": "address"
                }
            ],
            "name": "isApprovedForAll",
            "outputs": [
                {
                    "internalType": "bool",
                    "name": "",
                    "type": "bool"
                }
            ],
            "stateMutability": "view",
            "type": "function"
        },
        {
            "inputs": [
                {
                    "internalType": "address",
                    "name": "to",
                    "type": "address"
                }
            ],
            "name": "mint",
            "outputs": [],
            "stateMutability": "nonpayable",
            "type": "function"
        },
        {
            "inputs": [
                {
                    "internalType": "address",
                    "name": "to",
                    "type": "address"
                },
                {
                    "internalType": "uint256",
                    "name": "amount",
                    "type": "uint256"
                }
            ],
            "name": "mintBatch",
            "outputs": [],
            "stateMutability": "nonpayable",
            "type": "function"
        },
        {
            "inputs": [],
            "name": "name",
            "outputs": [
                {
                    "internalType": "string",
                    "name": "",
                    "type": "string"
                }
            ],
            "stateMutability": "view",
            "type": "function"
        },
        {
            "inputs": [
                {
                    "internalType": "uint256",
                    "name": "tokenId",
                    "type": "uint256"
                }
            ],
            "name": "ownerOf",
            "outputs": [
                {
                    "internalType": "address",
                    "name": "",
                    "type": "address"
                }
            ],
            "stateMutability": "view",
            "type": "function"
        },
        {
            "inputs": [
                {
                    "internalType": "address",
                    "name": "minter_",
                    "type": "address"
                }
            ],
            "name": "removeMinter",
            "outputs": [],
            "stateMutability": "nonpayable",
            "type": "function"
        },
        {
            "inputs": [
                {
                    "internalType": "bytes32",
                    "name": "role",
                    "type": "bytes32"
                },
                {
                    "internalType": "address",
                    "name": "account",
                    "type": "address"
                }
            ],
            "name": "renounceRole",
            "outputs": [],
            "stateMutability": "nonpayable",
            "type": "function"
        },
        {
            "inputs": [
                {
                    "internalType": "bytes32",
                    "name": "role",
                    "type": "bytes32"
                },
                {
                    "internalType": "address",
                    "name": "account",
                    "type": "address"
                }
            ],
            "name": "revokeRole",
            "outputs": [],
            "stateMutability": "nonpayable",
            "type": "function"
        },
        {
            "inputs": [
                {
                    "internalType": "address",
                    "name": "from",
                    "type": "address"
                },
                {
                    "internalType": "address",
                    "name": "to",
                    "type": "address"
                },
                {
                    "internalType": "uint256",
                    "name": "tokenId",
                    "type": "uint256"
                }
            ],
            "name": "safeTransferFrom",
            "outputs": [],
            "stateMutability": "nonpayable",
            "type": "function"
        },
        {
            "inputs": [
                {
                    "internalType": "address",
                    "name": "from",
                    "type": "address"
                },
                {
                    "internalType": "address",
                    "name": "to",
                    "type": "address"
                },
                {
                    "internalType": "uint256",
                    "name": "tokenId",
                    "type": "uint256"
                },
                {
                    "internalType": "bytes",
                    "name": "_data",
                    "type": "bytes"
                }
            ],
            "name": "safeTransferFrom",
            "outputs": [],
            "stateMutability": "nonpayable",
            "type": "function"
        },
        {
            "inputs": [
                {
                    "internalType": "address",
                    "name": "operator",
                    "type": "address"
                },
                {
                    "internalType": "bool",
                    "name": "approved",
                    "type": "bool"
                }
            ],
            "name": "setApprovalForAll",
            "outputs": [],
            "stateMutability": "nonpayable",
            "type": "function"
        },
        {
            "inputs": [
                {
                    "internalType": "string",
                    "name": "newuri",
                    "type": "string"
                }
            ],
            "name": "setURI",
            "outputs": [],
            "stateMutability": "nonpayable",
            "type": "function"
        },
        {
            "inputs": [
                {
                    "internalType": "bytes4",
                    "name": "interfaceId",
                    "type": "bytes4"
                }
            ],
            "name": "supportsInterface",
            "outputs": [
                {
                    "internalType": "bool",
                    "name": "",
                    "type": "bool"
                }
            ],
            "stateMutability": "view",
            "type": "function"
        },
        {
            "inputs": [],
            "name": "symbol",
            "outputs": [
                {
                    "internalType": "string",
                    "name": "",
                    "type": "string"
                }
            ],
            "stateMutability": "view",
            "type": "function"
        },
        {
            "inputs": [
                {
                    "internalType": "uint256",
                    "name": "index",
                    "type": "uint256"
                }
            ],
            "name": "tokenByIndex",
            "outputs": [
                {
                    "internalType": "uint256",
                    "name": "",
                    "type": "uint256"
                }
            ],
            "stateMutability": "view",
            "type": "function"
        },
        {
            "inputs": [
                {
                    "internalType": "address",
                    "name": "owner",
                    "type": "address"
                },
                {
                    "internalType": "uint256",
                    "name": "index",
                    "type": "uint256"
                }
            ],
            "name": "tokenOfOwnerByIndex",
            "outputs": [
                {
                    "internalType": "uint256",
                    "name": "",
                    "type": "uint256"
                }
            ],
            "stateMutability": "view",
            "type": "function"
        },
        {
            "inputs": [
                {
                    "internalType": "uint256",
                    "name": "tokenId",
                    "type": "uint256"
                }
            ],
            "name": "tokenURI",
            "outputs": [
                {
                    "internalType": "string",
                    "name": "",
                    "type": "string"
                }
            ],
            "stateMutability": "view",
            "type": "function"
        },
        {
            "inputs": [
                {
                    "internalType": "uint256",
                    "name": "offset",
                    "type": "uint256"
                },
                {
                    "internalType": "uint256",
                    "name": "limit",
                    "type": "uint256"
                }
            ],
            "name": "tokens",
            "outputs": [
                {
                    "internalType": "uint256",
                    "name": "total",
                    "type": "uint256"
                },
                {
                    "internalType": "uint256[]",
                    "name": "tokenIds",
                    "type": "uint256[]"
                }
            ],
            "stateMutability": "view",
            "type": "function"
        },
        {
            "inputs": [
                {
                    "internalType": "address",
                    "name": "owner",
                    "type": "address"
                },
                {
                    "internalType": "uint256",
                    "name": "offset",
                    "type": "uint256"
                },
                {
                    "internalType": "uint256",
                    "name": "limit",
                    "type": "uint256"
                }
            ],
            "name": "tokensOf",
            "outputs": [
                {
                    "internalType": "uint256",
                    "name": "total",
                    "type": "uint256"
                },
                {
                    "internalType": "uint256[]",
                    "name": "tokenIds",
                    "type": "uint256[]"
                }
            ],
            "stateMutability": "view",
            "type": "function"
        },
        {
            "inputs": [],
            "name": "totalSupply",
            "outputs": [
                {
                    "internalType": "uint256",
                    "name": "",
                    "type": "uint256"
                }
            ],
            "stateMutability": "view",
            "type": "function"
        },
        {
            "inputs": [
                {
                    "internalType": "address",
                    "name": "from",
                    "type": "address"
                },
                {
                    "internalType": "address",
                    "name": "to",
                    "type": "address"
                },
                {
                    "internalType": "uint256",
                    "name": "tokenId",
                    "type": "uint256"
                }
            ],
            "name": "transferFrom",
            "outputs": [],
            "stateMutability": "nonpayable",
            "type": "function"
        }
    ],
    "bytecode": "0x60806040523480156200001157600080fd5b50604051620030193803806200301983398101604081905262000034916200069a565b8251839083906200004d90600290602085019062000527565b5080516200006390600390602084019062000527565b5062000071915050620002da565b156200025c5760408051600180825281830190925260009160208083019080368337019050509050600081600081518110620000b157620000b16200072b565b6001600160a01b0390921660209283029190910190910152604051630809469f60e11b8152730888000000000000000000000000000000000001906310128d3e906200010290849060040162000741565b600060405180830381600087803b1580156200011d57600080fd5b505af115801562000132573d6000803e3d6000fd5b505060405163c55b6bb760e01b81523060048201526000602482015261011160931b925063c55b6bb79150604401600060405180830381600087803b1580156200017b57600080fd5b505af115801562000190573d6000803e3d6000fd5b50506040516364efb22b60e01b81523060048201526000925061011160931b91506364efb22b90602401602060405180830381865afa158015620001d8573d6000803e3d6000fd5b505050506040513d601f19601f82011682018060405250810190620001fe919062000790565b6001600160a01b0316146200025a5760405162461bcd60e51b815260206004820152601560248201527f726571756972652061646d696e203d3d206e756c6c000000000000000000000060448201526064015b60405180910390fd5b505b6200026960003362000315565b620002957f9f2df0fed2c77648de5860a4cc508cd0818c85b8b8a1ab4ceeef8d981c8956a63362000315565b620002c17f65d7a28e3265b37a6474929f336521b332c1681b933f6cb9f3376673440d862a3362000315565b620002cc8162000325565b50506001600d5550620007f7565b60006200030f731820a4b7618bde71dce8cdc73aab6c95905fad246001600160a01b0316620003bb60201b6200102e1760201c565b15905090565b620003218282620003c1565b5050565b6200033260003362000404565b620003a65760405162461bcd60e51b815260206004820152603360248201527f4352433732314e61747572654175746f49643a206d757374206861766520616460448201527f6d696e20726f6c6520746f207365742055524900000000000000000000000000606482015260840162000251565b80516200032190600c90602084019062000527565b3b151590565b620003d882826200042f60201b620010341760201c565b6000828152600160209081526040909120620003ff918390620010b8620004b7821b17901c565b505050565b6000828152602081815260408083206001600160a01b038516845290915290205460ff165b92915050565b6200043b828262000404565b62000321576000828152602081815260408083206001600160a01b03851684529091529020805460ff19166001179055620004733390565b6001600160a01b0316816001600160a01b0316837f2f8788117e7eff1d82e926ec794901d17c78024a50270940304540a733656f0d60405160405180910390a45050565b6000620004ce836001600160a01b038416620004d5565b9392505050565b60008181526001830160205260408120546200051e5750815460018181018455600084815260208082209093018490558454848252828601909352604090209190915562000429565b50600062000429565b8280546200053590620007bb565b90600052602060002090601f016020900481019282620005595760008555620005a4565b82601f106200057457805160ff1916838001178555620005a4565b82800160010185558215620005a4579182015b82811115620005a457825182559160200191906001019062000587565b50620005b2929150620005b6565b5090565b5b80821115620005b25760008155600101620005b7565b634e487b7160e01b600052604160045260246000fd5b600082601f830112620005f557600080fd5b81516001600160401b0380821115620006125762000612620005cd565b604051601f8301601f19908116603f011681019082821181831017156200063d576200063d620005cd565b816040528381526020925086838588010111156200065a57600080fd5b600091505b838210156200067e57858201830151818301840152908201906200065f565b83821115620006905760008385830101525b9695505050505050565b600080600060608486031215620006b057600080fd5b83516001600160401b0380821115620006c857600080fd5b620006d687838801620005e3565b94506020860151915080821115620006ed57600080fd5b620006fb87838801620005e3565b935060408601519150808211156200071257600080fd5b506200072186828701620005e3565b9150509250925092565b634e487b7160e01b600052603260045260246000fd5b6020808252825182820181905260009190848201906040850190845b81811015620007845783516001600160a01b0316835292840192918401916001016200075d565b50909695505050505050565b600060208284031215620007a357600080fd5b81516001600160a01b0381168114620004ce57600080fd5b600181811c90821680620007d057607f821691505b602082108103620007f157634e487b7160e01b600052602260045260246000fd5b50919050565b61281280620008076000396000f3fe608060405234801561001057600080fd5b50600436106102065760003560e01c80636352211e1161011a578063a217fddf116100ad578063ca15c8731161007c578063ca15c8731461046a578063d53913931461047d578063d547741f14610492578063e63ab1e9146104a5578063e985e9c5146104cc57600080fd5b8063a217fddf14610429578063a22cb46514610431578063b88d4fde14610444578063c87b56dd1461045757600080fd5b80639010d07c116100e95780639010d07c146103e857806391d14854146103fb57806395d89b411461040e578063983b2d561461041657600080fd5b80636352211e1461039c5780636a627842146103af57806370a08231146103c25780638b4864d6146103d557600080fd5b8063248a9ca31161019d5780633092afd51161016c5780633092afd51461033d57806336568abe1461035057806342842e0e146103635780634f6ccce71461037657806354777f411461038957600080fd5b8063248a9ca3146102e1578063248b71fc146103045780632f2ff15d146103175780632f745c591461032a57600080fd5b8063095ea7b3116101d9578063095ea7b31461028857806318160ddd1461029b57806323185dc9146102ad57806323b872dd146102ce57600080fd5b806301ffc9a71461020b57806302fe53051461023357806306fdde0314610248578063081812fc1461025d575b600080fd5b61021e610219366004612049565b610508565b60405190151581526020015b60405180910390f35b6102466102413660046120f2565b610528565b005b6102506105b7565b60405161022a9190612193565b61027061026b3660046121a6565b610649565b6040516001600160a01b03909116815260200161022a565b6102466102963660046121db565b6106de565b600a545b60405190815260200161022a565b6102c06102bb366004612205565b6107f3565b60405161022a929190612238565b6102466102dc366004612286565b6108e6565b61029f6102ef3660046121a6565b60009081526020819052604090206001015490565b6102466103123660046121db565b610917565b6102466103253660046122c2565b61098f565b61029f6103383660046121db565b6109b5565b61024661034b3660046122ee565b610a4b565b61024661035e3660046122c2565b610a66565b610246610371366004612286565b610ae0565b61029f6103843660046121a6565b610afb565b610246610397366004612309565b610b8e565b6102706103aa3660046121a6565b610c2a565b6102466103bd3660046122ee565b610ca1565b61029f6103d03660046122ee565b610cf4565b6102c06103e336600461237e565b610d7b565b6102706103f636600461237e565b610e65565b61021e6104093660046122c2565b610e84565b610250610ead565b6102466104243660046122ee565b610ebc565b61029f600081565b61024661043f3660046123a0565b610ed4565b6102466104523660046123dc565b610edf565b6102506104653660046121a6565b610f17565b61029f6104783660046121a6565b610ff1565b61029f6000805160206127bd83398151915281565b6102466104a03660046122c2565b611008565b61029f7f65d7a28e3265b37a6474929f336521b332c1681b933f6cb9f3376673440d862a81565b61021e6104da366004612458565b6001600160a01b03918216600090815260076020908152604080832093909416825291909152205460ff1690565b6000610513826110cd565b806105225750610522826110f2565b92915050565b610533600033610e84565b6105a05760405162461bcd60e51b815260206004820152603360248201527f4352433732314e61747572654175746f49643a206d75737420686176652061646044820152726d696e20726f6c6520746f207365742055524960681b60648201526084015b60405180910390fd5b80516105b390600c906020840190611f9a565b5050565b6060600280546105c690612482565b80601f01602080910402602001604051908101604052809291908181526020018280546105f290612482565b801561063f5780601f106106145761010080835404028352916020019161063f565b820191906000526020600020905b81548152906001019060200180831161062257829003601f168201915b5050505050905090565b6000818152600460205260408120546001600160a01b03166106c25760405162461bcd60e51b815260206004820152602c60248201527f4552433732313a20617070726f76656420717565727920666f72206e6f6e657860448201526b34b9ba32b73a103a37b5b2b760a11b6064820152608401610597565b506000908152600660205260409020546001600160a01b031690565b60006106e982610c2a565b9050806001600160a01b0316836001600160a01b0316036107565760405162461bcd60e51b815260206004820152602160248201527f4552433732313a20617070726f76616c20746f2063757272656e74206f776e656044820152603960f91b6064820152608401610597565b336001600160a01b0382161480610772575061077281336104da565b6107e45760405162461bcd60e51b815260206004820152603860248201527f4552433732313a20617070726f76652063616c6c6572206973206e6f74206f7760448201527f6e6572206e6f7220617070726f76656420666f7220616c6c00000000000000006064820152608401610597565b6107ee8383611117565b505050565b6000606061080085610cf4565b915081158061080f5750818410155b1561082957506040805160008152602081019091526108de565b600061083f61083885876124d2565b8490611185565b905061084b85826124ea565b67ffffffffffffffff81111561086357610863612066565b60405190808252806020026020018201604052801561088c578160200160208202803683370190505b509150845b818110156108db576108a387826109b5565b836108ae88846124ea565b815181106108be576108be612501565b6020908102919091010152806108d381612517565b915050610891565b50505b935093915050565b6108f0338261119b565b61090c5760405162461bcd60e51b815260040161059790612530565b6107ee838383611292565b61092f6000805160206127bd83398151915233610e84565b61094b5760405162461bcd60e51b815260040161059790612581565b600d5460005b8281101561097c5761096c8461096783856124d2565b61143d565b61097581612517565b9050610951565b5061098782826124d2565b600d55505050565b6000828152602081905260409020600101546109ab813361158b565b6107ee83836115ef565b60006109c083610cf4565b8210610a225760405162461bcd60e51b815260206004820152602b60248201527f455243373231456e756d657261626c653a206f776e657220696e646578206f7560448201526a74206f6620626f756e647360a81b6064820152608401610597565b506001600160a01b03919091166000908152600860209081526040808320938352929052205490565b610a636000805160206127bd83398151915282611008565b50565b6001600160a01b0381163314610ad65760405162461bcd60e51b815260206004820152602f60248201527f416363657373436f6e74726f6c3a2063616e206f6e6c792072656e6f756e636560448201526e103937b632b9903337b91039b2b63360891b6064820152608401610597565b6105b38282611611565b6107ee83838360405180602001604052806000815250610edf565b6000610b06600a5490565b8210610b695760405162461bcd60e51b815260206004820152602c60248201527f455243373231456e756d657261626c653a20676c6f62616c20696e646578206f60448201526b7574206f6620626f756e647360a01b6064820152608401610597565b600a8281548110610b7c57610b7c612501565b90600052602060002001549050919050565b610ba66000805160206127bd83398151915233610e84565b610bc25760405162461bcd60e51b815260040161059790612581565b600d54819060005b82811015610c1657610c06858583818110610be757610be7612501565b9050602002016020810190610bfc91906122ee565b61096783856124d2565b610c0f81612517565b9050610bca565b50610c2182826124d2565b600d5550505050565b6000818152600460205260408120546001600160a01b0316806105225760405162461bcd60e51b815260206004820152602960248201527f4552433732313a206f776e657220717565727920666f72206e6f6e657869737460448201526832b73a103a37b5b2b760b91b6064820152608401610597565b610cb96000805160206127bd83398151915233610e84565b610cd55760405162461bcd60e51b815260040161059790612581565b600d54610ce2828261143d565b610ced8160016124d2565b600d555050565b60006001600160a01b038216610d5f5760405162461bcd60e51b815260206004820152602a60248201527f4552433732313a2062616c616e636520717565727920666f7220746865207a65604482015269726f206164647265737360b01b6064820152608401610597565b506001600160a01b031660009081526005602052604090205490565b60006060610d88600a5490565b9150811580610d975750818410155b15610db15750604080516000815260208101909152610e5e565b6000610dc061083885876124d2565b9050610dcc85826124ea565b67ffffffffffffffff811115610de457610de4612066565b604051908082528060200260200182016040528015610e0d578160200160208202803683370190505b509150845b81811015610e5b57610e2381610afb565b83610e2e88846124ea565b81518110610e3e57610e3e612501565b602090810291909101015280610e5381612517565b915050610e12565b50505b9250929050565b6000828152600160205260408120610e7d9083611633565b9392505050565b6000918252602082815260408084206001600160a01b0393909316845291905290205460ff1690565b6060600380546105c690612482565b610a636000805160206127bd8339815191528261098f565b6105b333838361163f565b610ee9338361119b565b610f055760405162461bcd60e51b815260040161059790612530565b610f118484848461170d565b50505050565b6000818152600460205260409020546060906001600160a01b0316610f965760405162461bcd60e51b815260206004820152602f60248201527f4552433732314d657461646174613a2055524920717565727920666f72206e6f60448201526e3732bc34b9ba32b73a103a37b5b2b760891b6064820152608401610597565b6000610fa0611740565b90506000815111610fc05760405180602001604052806000815250610e7d565b80610fca8461174f565b604051602001610fdb9291906125d2565b6040516020818303038152906040529392505050565b600081815260016020526040812061052290611850565b600082815260208190526040902060010154611024813361158b565b6107ee8383611611565b3b151590565b61103e8282610e84565b6105b3576000828152602081815260408083206001600160a01b03851684529091529020805460ff191660011790556110743390565b6001600160a01b0316816001600160a01b0316837f2f8788117e7eff1d82e926ec794901d17c78024a50270940304540a733656f0d60405160405180910390a45050565b6000610e7d836001600160a01b03841661185a565b60006001600160e01b03198216635a05180f60e01b14806105225750610522826118a9565b60006001600160e01b0319821663780e9d6360e01b14806105225750610522826118de565b600081815260066020526040902080546001600160a01b0319166001600160a01b038416908117909155819061114c82610c2a565b6001600160a01b03167f8c5be1e5ebec7d5bd14f71427d1e84f3dd0314c0f7b2291e5b200ac8c7c3b92560405160405180910390a45050565b60008183106111945781610e7d565b5090919050565b6000818152600460205260408120546001600160a01b03166112145760405162461bcd60e51b815260206004820152602c60248201527f4552433732313a206f70657261746f7220717565727920666f72206e6f6e657860448201526b34b9ba32b73a103a37b5b2b760a11b6064820152608401610597565b600061121f83610c2a565b9050806001600160a01b0316846001600160a01b0316148061125a5750836001600160a01b031661124f84610649565b6001600160a01b0316145b8061128a57506001600160a01b0380821660009081526007602090815260408083209388168352929052205460ff165b949350505050565b826001600160a01b03166112a582610c2a565b6001600160a01b03161461130d5760405162461bcd60e51b815260206004820152602960248201527f4552433732313a207472616e73666572206f6620746f6b656e2074686174206960448201526839903737ba1037bbb760b91b6064820152608401610597565b6001600160a01b03821661136f5760405162461bcd60e51b8152602060048201526024808201527f4552433732313a207472616e7366657220746f20746865207a65726f206164646044820152637265737360e01b6064820152608401610597565b61137a83838361191e565b611385600082611117565b6001600160a01b03831660009081526005602052604081208054600192906113ae9084906124ea565b90915550506001600160a01b03821660009081526005602052604081208054600192906113dc9084906124d2565b909155505060008181526004602052604080822080546001600160a01b0319166001600160a01b0386811691821790925591518493918716917fddf252ad1be2c89b69c2b068fc378daa952ba7f163c4a11628f55a4df523b3ef91a4505050565b6001600160a01b0382166114935760405162461bcd60e51b815260206004820181905260248201527f4552433732313a206d696e7420746f20746865207a65726f20616464726573736044820152606401610597565b6000818152600460205260409020546001600160a01b0316156114f85760405162461bcd60e51b815260206004820152601c60248201527f4552433732313a20746f6b656e20616c7265616479206d696e746564000000006044820152606401610597565b6115046000838361191e565b6001600160a01b038216600090815260056020526040812080546001929061152d9084906124d2565b909155505060008181526004602052604080822080546001600160a01b0319166001600160a01b03861690811790915590518392907fddf252ad1be2c89b69c2b068fc378daa952ba7f163c4a11628f55a4df523b3ef908290a45050565b6115958282610e84565b6105b3576115ad816001600160a01b031660146119d6565b6115b88360206119d6565b6040516020016115c9929190612611565b60408051601f198184030181529082905262461bcd60e51b825261059791600401612193565b6115f98282611034565b60008281526001602052604090206107ee90826110b8565b61161b8282611b72565b60008281526001602052604090206107ee9082611bd7565b6000610e7d8383611bec565b816001600160a01b0316836001600160a01b0316036116a05760405162461bcd60e51b815260206004820152601960248201527f4552433732313a20617070726f766520746f2063616c6c6572000000000000006044820152606401610597565b6001600160a01b03838116600081815260076020908152604080832094871680845294825291829020805460ff191686151590811790915591519182527f17307eab39ab6107e8899845ad3d59bd9653f200f220920489ca2b5937696c31910160405180910390a3505050565b611718848484611292565b61172484848484611c16565b610f115760405162461bcd60e51b815260040161059790612686565b6060600c80546105c690612482565b6060816000036117765750506040805180820190915260018152600360fc1b602082015290565b8160005b81156117a0578061178a81612517565b91506117999050600a836126ee565b915061177a565b60008167ffffffffffffffff8111156117bb576117bb612066565b6040519080825280601f01601f1916602001820160405280156117e5576020820181803683370190505b5090505b841561128a576117fa6001836124ea565b9150611807600a86612702565b6118129060306124d2565b60f81b81838151811061182757611827612501565b60200101906001600160f81b031916908160001a905350611849600a866126ee565b94506117e9565b6000610522825490565b60008181526001830160205260408120546118a157508154600181810184556000848152602080822090930184905584548482528286019093526040902091909155610522565b506000610522565b60006001600160e01b03198216637965db0b60e01b148061052257506301ffc9a760e01b6001600160e01b0319831614610522565b60006001600160e01b031982166380ac58cd60e01b148061190f57506001600160e01b03198216635b5e139f60e01b145b806105225750610522826110cd565b6001600160a01b0383166119795761197481600a80546000838152600b60205260408120829055600182018355919091527fc65a7bb8d6351c1cf70c95a316cc6a92839c986682d98bc35f958f4883f9d2a80155565b61199c565b816001600160a01b0316836001600160a01b03161461199c5761199c8382611d17565b6001600160a01b0382166119b3576107ee81611db4565b826001600160a01b0316826001600160a01b0316146107ee576107ee8282611e63565b606060006119e5836002612716565b6119f09060026124d2565b67ffffffffffffffff811115611a0857611a08612066565b6040519080825280601f01601f191660200182016040528015611a32576020820181803683370190505b509050600360fc1b81600081518110611a4d57611a4d612501565b60200101906001600160f81b031916908160001a905350600f60fb1b81600181518110611a7c57611a7c612501565b60200101906001600160f81b031916908160001a9053506000611aa0846002612716565b611aab9060016124d2565b90505b6001811115611b23576f181899199a1a9b1b9c1cb0b131b232b360811b85600f1660108110611adf57611adf612501565b1a60f81b828281518110611af557611af5612501565b60200101906001600160f81b031916908160001a90535060049490941c93611b1c81612735565b9050611aae565b508315610e7d5760405162461bcd60e51b815260206004820181905260248201527f537472696e67733a20686578206c656e67746820696e73756666696369656e746044820152606401610597565b611b7c8282610e84565b156105b3576000828152602081815260408083206001600160a01b0385168085529252808320805460ff1916905551339285917ff6391f5c32d9c69d2a47ea670b442974b53935d1edc7fd64eb21e047a839171b9190a45050565b6000610e7d836001600160a01b038416611ea7565b6000826000018281548110611c0357611c03612501565b9060005260206000200154905092915050565b60006001600160a01b0384163b15611d0c57604051630a85bd0160e11b81526001600160a01b0385169063150b7a0290611c5a90339089908890889060040161274c565b6020604051808303816000875af1925050508015611c95575060408051601f3d908101601f19168201909252611c9291810190612789565b60015b611cf2573d808015611cc3576040519150601f19603f3d011682016040523d82523d6000602084013e611cc8565b606091505b508051600003611cea5760405162461bcd60e51b815260040161059790612686565b805181602001fd5b6001600160e01b031916630a85bd0160e11b14905061128a565b506001949350505050565b60006001611d2484610cf4565b611d2e91906124ea565b600083815260096020526040902054909150808214611d81576001600160a01b03841660009081526008602090815260408083208584528252808320548484528184208190558352600990915290208190555b5060009182526009602090815260408084208490556001600160a01b039094168352600881528383209183525290812055565b600a54600090611dc6906001906124ea565b6000838152600b6020526040812054600a8054939450909284908110611dee57611dee612501565b9060005260206000200154905080600a8381548110611e0f57611e0f612501565b6000918252602080832090910192909255828152600b9091526040808220849055858252812055600a805480611e4757611e476127a6565b6001900381819060005260206000200160009055905550505050565b6000611e6e83610cf4565b6001600160a01b039093166000908152600860209081526040808320868452825280832085905593825260099052919091209190915550565b60008181526001830160205260408120548015611f90576000611ecb6001836124ea565b8554909150600090611edf906001906124ea565b9050818114611f44576000866000018281548110611eff57611eff612501565b9060005260206000200154905080876000018481548110611f2257611f22612501565b6000918252602080832090910192909255918252600188019052604090208390555b8554869080611f5557611f556127a6565b600190038181906000526020600020016000905590558560010160008681526020019081526020016000206000905560019350505050610522565b6000915050610522565b828054611fa690612482565b90600052602060002090601f016020900481019282611fc8576000855561200e565b82601f10611fe157805160ff191683800117855561200e565b8280016001018555821561200e579182015b8281111561200e578251825591602001919060010190611ff3565b5061201a92915061201e565b5090565b5b8082111561201a576000815560010161201f565b6001600160e01b031981168114610a6357600080fd5b60006020828403121561205b57600080fd5b8135610e7d81612033565b634e487b7160e01b600052604160045260246000fd5b600067ffffffffffffffff8084111561209757612097612066565b604051601f8501601f19908116603f011681019082821181831017156120bf576120bf612066565b816040528093508581528686860111156120d857600080fd5b858560208301376000602087830101525050509392505050565b60006020828403121561210457600080fd5b813567ffffffffffffffff81111561211b57600080fd5b8201601f8101841361212c57600080fd5b61128a8482356020840161207c565b60005b8381101561215657818101518382015260200161213e565b83811115610f115750506000910152565b6000815180845261217f81602086016020860161213b565b601f01601f19169290920160200192915050565b602081526000610e7d6020830184612167565b6000602082840312156121b857600080fd5b5035919050565b80356001600160a01b03811681146121d657600080fd5b919050565b600080604083850312156121ee57600080fd5b6121f7836121bf565b946020939093013593505050565b60008060006060848603121561221a57600080fd5b612223846121bf565b95602085013595506040909401359392505050565b6000604082018483526020604081850152818551808452606086019150828701935060005b818110156122795784518352938301939183019160010161225d565b5090979650505050505050565b60008060006060848603121561229b57600080fd5b6122a4846121bf565b92506122b2602085016121bf565b9150604084013590509250925092565b600080604083850312156122d557600080fd5b823591506122e5602084016121bf565b90509250929050565b60006020828403121561230057600080fd5b610e7d826121bf565b6000806020838503121561231c57600080fd5b823567ffffffffffffffff8082111561233457600080fd5b818501915085601f83011261234857600080fd5b81358181111561235757600080fd5b8660208260051b850101111561236c57600080fd5b60209290920196919550909350505050565b6000806040838503121561239157600080fd5b50508035926020909101359150565b600080604083850312156123b357600080fd5b6123bc836121bf565b9150602083013580151581146123d157600080fd5b809150509250929050565b600080600080608085870312156123f257600080fd5b6123fb856121bf565b9350612409602086016121bf565b925060408501359150606085013567ffffffffffffffff81111561242c57600080fd5b8501601f8101871361243d57600080fd5b61244c8782356020840161207c565b91505092959194509250565b6000806040838503121561246b57600080fd5b612474836121bf565b91506122e5602084016121bf565b600181811c9082168061249657607f821691505b6020821081036124b657634e487b7160e01b600052602260045260246000fd5b50919050565b634e487b7160e01b600052601160045260246000fd5b600082198211156124e5576124e56124bc565b500190565b6000828210156124fc576124fc6124bc565b500390565b634e487b7160e01b600052603260045260246000fd5b600060018201612529576125296124bc565b5060010190565b60208082526031908201527f4552433732313a207472616e736665722063616c6c6572206973206e6f74206f6040820152701ddb995c881b9bdc88185c1c1c9bdd9959607a1b606082015260800190565b60208082526031908201527f4352433732314e61747572654175746f49643a206d7573742068617665206d696040820152701b9d195c881c9bdb19481d1bc81b5a5b9d607a1b606082015260800190565b600083516125e481846020880161213b565b8351908301906125f881836020880161213b565b64173539b7b760d91b9101908152600501949350505050565b7f416363657373436f6e74726f6c3a206163636f756e742000000000000000000081526000835161264981601785016020880161213b565b7001034b99036b4b9b9b4b733903937b6329607d1b601791840191820152835161267a81602884016020880161213b565b01602801949350505050565b60208082526032908201527f4552433732313a207472616e7366657220746f206e6f6e20455243373231526560408201527131b2b4bb32b91034b6b83632b6b2b73a32b960711b606082015260800190565b634e487b7160e01b600052601260045260246000fd5b6000826126fd576126fd6126d8565b500490565b600082612711576127116126d8565b500690565b6000816000190483118215151615612730576127306124bc565b500290565b600081612744576127446124bc565b506000190190565b6001600160a01b038581168252841660208201526040810183905260806060820181905260009061277f90830184612167565b9695505050505050565b60006020828403121561279b57600080fd5b8151610e7d81612033565b634e487b7160e01b600052603160045260246000fdfe9f2df0fed2c77648de5860a4cc508cd0818c85b8b8a1ab4ceeef8d981c8956a6a264697066735822122050e5db772636cacf2191ea6578840e18d6d0d321f503e0bfd8f66897bc7df14764736f6c634300080e0033",
    "sourcePath": "d:/sol/NFT2.0/contracts/CRC721NatureAutoId.sol",
    "compiler": {
        "name": "solc",
        "version": "0.8.14+commit.80d49f37"
    },
    "functionHashes": {
        "DEFAULT_ADMIN_ROLE()": "a217fddf",
        "MINTER_ROLE()": "d5391393",
        "PAUSER_ROLE()": "e63ab1e9",
        "addMinter(address)": "983b2d56",
        "approve(address,uint256)": "095ea7b3",
        "balanceOf(address)": "70a08231",
        "batchAddItemByAddress(address[])": "54777f41",
        "getApproved(uint256)": "081812fc",
        "getRoleAdmin(bytes32)": "248a9ca3",
        "getRoleMember(bytes32,uint256)": "9010d07c",
        "getRoleMemberCount(bytes32)": "ca15c873",
        "grantRole(bytes32,address)": "2f2ff15d",
        "hasRole(bytes32,address)": "91d14854",
        "isApprovedForAll(address,address)": "e985e9c5",
        "mint(address)": "6a627842",
        "mintBatch(address,uint256)": "248b71fc",
        "name()": "06fdde03",
        "ownerOf(uint256)": "6352211e",
        "removeMinter(address)": "3092afd5",
        "renounceRole(bytes32,address)": "36568abe",
        "revokeRole(bytes32,address)": "d547741f",
        "safeTransferFrom(address,address,uint256)": "42842e0e",
        "safeTransferFrom(address,address,uint256,bytes)": "b88d4fde",
        "setApprovalForAll(address,bool)": "a22cb465",
        "setURI(string)": "02fe5305",
        "supportsInterface(bytes4)": "01ffc9a7",
        "symbol()": "95d89b41",
        "tokenByIndex(uint256)": "4f6ccce7",
        "tokenOfOwnerByIndex(address,uint256)": "2f745c59",
        "tokenURI(uint256)": "c87b56dd",
        "tokens(uint256,uint256)": "8b4864d6",
        "tokensOf(address,uint256,uint256)": "23185dc9",
        "totalSupply()": "18160ddd",
        "transferFrom(address,address,uint256)": "23b872dd"
    },
    "gasEstimates": {
        "creation": {
            "codeDepositCost": "2051600",
            "executionCost": "infinite",
            "totalCost": "infinite"
        },
        "external": {
            "DEFAULT_ADMIN_ROLE()": "240",
            "MINTER_ROLE()": "infinite",
            "PAUSER_ROLE()": "305",
            "addMinter(address)": "infinite",
            "approve(address,uint256)": "infinite",
            "balanceOf(address)": "2679",
            "batchAddItemByAddress(address[])": "infinite",
            "getApproved(uint256)": "4805",
            "getRoleAdmin(bytes32)": "2493",
            "getRoleMember(bytes32,uint256)": "infinite",
            "getRoleMemberCount(bytes32)": "infinite",
            "grantRole(bytes32,address)": "infinite",
            "hasRole(bytes32,address)": "2718",
            "isApprovedForAll(address,address)": "infinite",
            "mint(address)": "infinite",
            "mintBatch(address,uint256)": "infinite",
            "name()": "infinite",
            "ownerOf(uint256)": "2602",
            "removeMinter(address)": "infinite",
            "renounceRole(bytes32,address)": "infinite",
            "revokeRole(bytes32,address)": "infinite",
            "safeTransferFrom(address,address,uint256)": "infinite",
            "safeTransferFrom(address,address,uint256,bytes)": "infinite",
            "setApprovalForAll(address,bool)": "26750",
            "setURI(string)": "infinite",
            "supportsInterface(bytes4)": "infinite",
            "symbol()": "infinite",
            "tokenByIndex(uint256)": "6826",
            "tokenOfOwnerByIndex(address,uint256)": "5042",
            "tokenURI(uint256)": "infinite",
            "tokens(uint256,uint256)": "infinite",
            "tokensOf(address,uint256,uint256)": "infinite",
            "totalSupply()": "2349",
            "transferFrom(address,address,uint256)": "infinite"
        },
        "internal": {
            "_baseURI()": "infinite"
        }
    }
}